:020000040000fa
:080000000002040000000000f2
:020000040000fa
:100008002c3900000c3900001039000014390000a8
:10001800183900002c3900002c3900002c39000058
:100028002c3900002c3900002c3900001e2e00004d
:10003800b40e00002c3900002c3900002c390000c7
:10004800783200002c3900002c3900002c390000cf
:100058002c3900002c390000003900002c39000030
:100068002c390000343900002c39000036360000e5
:100078002c3900002c3900002c3900002c390000e4
:10008800661600002c3900002c3900002c390000bd
:100098002c3900002c3900002c3900002c390000c4
:1000a8002c3900002c3900002c3900001e2f0000cc
:1000b8002c3900002c3900002c3900002c390000a4
:1000c8002c3900002c3900002c3900002c39000094
:1000d8002c3900002c3900002c3900002c39000084
:1000e8002c3900002c3900002c3900002c39000074
:1000f8002c3900002c3900002c3900002c39000064
:100108002c3900002c390000a02e00002c390000ea
:100118002c3900002c3900002c390000c8330000ad
:100128002c3900002c3900002c3900002c39000033
:100138002c3900002c3900002c3900002c39000023
:100148002c3900002c3900002c3900002c39000013
:100158002c3900002c3900002c3900002c39000003
:100168002c3900002c3900002c3900002c390000f3
:100178002c3900002c3900002c3900002c390000e3
:100188002c3900002c3900002c3900002c390000d3
:100198002c3900002c3900002c3900002c390000c3
:1001a8002c3900002c3900002c3900002c390000b3
:1001b8002c3900002c3900002c3900002c390000a3
:1001c8002c3900002c3900002c3900002c39000093
:1001d8002c3900002c3900002c3900002c39000083
:1001e8002c3900002c3900002c3900002c39000073
:0801f8002c3900002c39000035
:020000040000fa
:100208002c3900001c390000203900002439000076
:10021800283900002c3900002c3900002c39000046
:100228002c3900002c3900002c3900001e2e00004b
:10023800b40e00002c3900002c3900002c390000c5
:10024800783200002c3900002c3900002c390000cd
:100258002c3900002c390000003900002c3900002e
:100268002c390000343900002c39000036360000e3
:100278002c3900002c3900002c3900002c390000e2
:10028800661600002c3900002c3900002c390000bb
:100298002c3900002c3900002c3900002c390000c2
:1002a8002c3900002c3900002c3900001e2f0000ca
:1002b8002c3900002c3900002c3900002c390000a2
:1002c8002c3900002c3900002c3900002c39000092
:1002d8002c3900002c3900002c3900002c39000082
:1002e8002c3900002c3900002c3900002c39000072
:1002f8002c3900002c3900002c3900002c39000062
:100308002c3900002c390000a02e00002c390000e8
:100318002c3900002c3900002c390000c8330000ab
:100328002c3900002c3900002c3900002c39000031
:100338002c3900002c3900002c3900002c39000021
:100348002c3900002c3900002c3900002c39000011
:100358002c3900002c3900002c3900002c39000001
:100368002c3900002c3900002c3900002c390000f1
:100378002c3900002c3900002c3900002c390000e1
:100388002c3900002c3900002c3900002c390000d1
:100398002c3900002c3900002c3900002c390000c1
:1003a8002c3900002c3900002c3900002c390000b1
:1003b8002c3900002c3900002c3900002c390000a1
:1003c8002c3900002c3900002c3900002c39000091
:1003d8002c3900002c3900002c3900002c39000081
:1003e8002c3900002c3900002c3900002c39000071
:0803f8002c3900002c39000033
:020000040000fa
:100400000fc620000e6d24000e01880000000000c1
:10041000000020000000e000020032000001200087
:10042000200288000c0007004099210001002000f4
:1004300011000700000020000000e0000200320070
:100440000000020000000000fe1d0200000000008d
:100450000040da000000fe004440a90040082000ef
:100460000000e0000300320000002000a00188002e
:100470004440a80000000600910188008000780038
:100480000000eb0015003700e280400032a0b4000d
:100490009101ba00e280400032a0b4009102ba009b
:1004a000e280400032a0b4000002eb00472bde00e7
:1004b000f507b200602ce10004003a000059eb009f
:1004c0008301e900fdff3e00040037006128e100e0
:1004d000010032000082eb00040007001101ba00a5
:1004e0000200e000e8ff3a00000006003159ba00bf
:1004f0008301e9000c0032002159ba008301e900b0
:10050000080032000400e00003003a00e2804000ee
:1005100032a0b400f5ff370011d9ba008301e90019
:10052000faff3a008100e800e180400032a0b40008
:100530000000060036060400000000000021ef0065
:100540001108880020088800000006000a21ef003a
:100550007108880090088800000006001421ef0050
:10056000d1088800f00888001e61a900000006007c
:1005700000088800000006005008880000000600ff
:10058000a008880000000600c008880000000600df
:100590003200f800023b8800910188000008bb008f
:1005a0000500fc0051052000313b8800a10a200015
:1005b000313b880061e7a800000000000000000057
:1005c0003200f900000006000400a100010037001d
:1005d0000400a0003200f8009101880011002400fe
:1005e000013b8800f10f20003208bb000400a70087
:1005f000b20078000198bb008301e900faff3a00dd
:10060000680151000400a700680151006800500013
:100610001208bb00e2ff3700f30f20003200f800a1
:100620009101880031002400013b88000208bb00d2
:100630000388bb00daff37003200f800003b880077
:10064000d7ff37003200f80091018800800278005f
:1006500062004000e08048003549ba003204e00002
:100660000410a700100032008301e9000e003200e0
:100670002549ba003204e0000410a7000a00320045
:100680008301e900080032000408a300eeff3200f5
:1006900015c9ba003204e0000410a70002003200bd
:1006a0008301e900e8ff3a003200f900000006008b
:1006b000889fbe008a9fbe008c1f7800ab00070099
:1006c000b200330003866c006450e1002e0032005b
:1006d0006420e100330032006150e1002f0032005d
:1006e0006120e1003100320085855500eb07b00044
:1006f0000900200008042000050037000804440019
:1007000089844c000a0031000603430087834b00b4
:100710000001530081815b00f8ff33000203be003b
:100720000800a0000804440089844c00f6ff39004a
:10073000c639dd0083017300010032001300200080
:100740008904d1000884d3000998a3000500320071
:100750000800a7000300a0008904d1000884d3008a
:100760008b05e8008904d1000884d3000001eb0068
:100770000281d2004200070001f0a1000cf0a700a6
:1007800001f0a0008a0037006420e1008c003200f4
:100790000801be000200be00f7ff37006120e10043
:1007a000870032006000b800f3ff3700000020002f
:1007b00001f82700f0ff3700839f68000100e00088
:1007c00002003d0060001000e08018000300e0001f
:1007d00002003d0060011100e0811900af00070038
:1007e0004f00e00002003b0060001000e0801800b5
:1007f0000000060014002000b80037000001be0011
:10080000450007000470a70003f0a1006509b100ce
:10081000160032000d0035006828e10006003500a2
:10082000f0ff2f00f1ff27000300e00013003b0062
:100830000100280000000500000040008180480001
:100840008502e900fcff3a0008003700f88f4200fb
:1008500002003c008000eb00000005008100d10098
:100860000080d3008502e800fcff3a000300e000ae
:1008700002003b0060001000e0801800000006004d
:1008800081002000618055000b003d000b0020001e
:1008900061fe2f000100e1001d0034008281710023
:1008a000610164008904d1000884d3000000e800dd
:1008b000faff3a007100200061006400030070003c
:1008c000020060000900320061044400e0844c0032
:1008d0000988a500050032008b05e8006808e100e2
:1008e00002003a008904d1000884d300f20f2000ee
:1008f0000258e10005003d00c75ddd00f907b200c8
:100900008980750008007800000006000bf82700b9
:100910008b00780000000500c70ade00f107b20076
:10092000f50fb20008003200e1cf420002003200b1
:100930000170a00024000500810f7000010032004a
:100940000408050044000500810f700002003a0011
:10095000140005008502e9000000400081c0480045
:10096000fcff3b000170a000240005000004be0055
:10097000e9ff07000003be000405be000200be0040
:10098000e5ff0700844f7500000006000200be006e
:100990006450e100050036006420e10002003600ea
:1009a0000968a30001003a000800be000160a00031
:1009b0004f0678004f05be004f04be000000060041
:1009c000f0ff2f00f1ff2700f9ff3700889fbe00de
:1009d0008a9fbe008c1f7800e4ff0700ebff330006
:1009e00003866c006450e100240032006420e100c2
:1009f000270032006150e100220032006120e10056
:100a0000210032008b854200eb07b1000134b800b1
:100a1000003ab8000804420089844a00013ab8004c
:100a20000030b8008880400009014a00040033000b
:100a30000000400081804800020149008b05e90068
:100a4000c909dd008301700001003200130020009d
:100a5000c814de004814dd004709de001200b200b1
:100a6000c808de000884700085ff070001f0a100bf
:100a70000cf0a70001f0a000cdff37006120e100dd
:100a8000cfff32000801be000200be00f7ff3700b2
:100a90006150e100fcff3a00c9ff37006022b80056
:100aa000060220000000d0008180d2000482d20023
:100ab0008582d2000000a0000202520083825a0008
:100ac000030031000202420083824a000000a100bc
:100ad0000603e900f3ff3a0000000600889fbe000d
:100ae0008a9fbe00841f7800a0ff07004f00780097
:100af00011003300f0ff2f00838f6c0006003b00d5
:100b0000040565000a00a7000800370009f0a600e8
:100b10001000200008003700820f5400838f5c0013
:100b2000030039001000200001003e0000002000fa
:100b300009f0a7000000ea004f05be004f04be0008
:100b40000000e0000000060000027800020037000c
:100b5000315a78000201e900e00f5100fcff3a0031
:040b6000000006008b
:020000040000fa
:100b6400000600000201000004050000030000006c
:100b7400000000004a01000094020000de030000af
:100b84002705000070060000b907000001090000f5
:100b9400480a00008f0b0000d50c0000190e00005d
:100ba4005d0f00009f100000e01100002013000002
:100bb4005e1400009b150000d61600000f180000fc
:100bc400461900007b1a0000af1b0000e01c000067
:100bd4000e1e00003b1f0000652000008c21000059
:100be400b1220000d3230000f3240000ff7f0000a3
:100bf400fb7f0000ec7f0000d37f0000b07f00008b
:100c0400837f00004c7f00000b7f0000c17e00004a
:100c14006c7e00000e7e0000a57d0000337d000088
:100c2400b87c0000327c0000a37b00000a7b00003b
:100c3400687a0000bc79000006790000477800005b
:100c44007f770000ad760000d3750000ef740000dc
:100c5400017400000b7300000c72000004710000aa
:080c6400f36f0000d96e0000df
:020000040000fa
:100c6c00ee874700889fbe008a9fbe008c9fbe0007
:100c7c008e1f7800800578000470200004826500c7
:100c8c0005002000c828dd004822de000482700028
:100c9c00c82ade0004457800e14f5500ae0332004f
:100cac00050039008040eb000002eb00e74f5500d7
:100cbc0014043a00f203370093427800e9cf520053
:100ccc000c003a008040eb000002eb00e24f5100b8
:100cdc000c043a00c5bf200095cf10000904320067
:100cec0013409000a71807008040eb001400200070
:100cfc0004043700e7cf52000c003a008040eb00b0
:100d0c000002eb00e14f5100fe033a0074c0b30047
:100d1c00e4e79f00846e240014427800f4e79f00ff
:100d2c0021c0b30014002000f603370034c3b30015
:100d3c0084cf52000c003a008040eb000002eb0024
:100d4c00e14f5100ef033a0034c3b300e4e79f00d6
:100d5c00d4bf200014427800f4e79f0021c0b300f8
:100d6c0014002000e703370024c3b30084cf5200e3
:100d7c003e003a008040eb000002eb00e24f5100d5
:100d8c00e0033a00846e240094cf1000050032007a
:100d9c000002eb0005cbb300866e240096cf120048
:100dac00d8033a0013409000d8bf2000004c7800c4
:100dbc0003190700184078002b1507000002eb0000
:100dcc008304200062b620000000250011002000e2
:100ddc0019fe070022042400000025001100200049
:100dec00e8fd070069b62000184278000482fb0079
:100dfc0005002000848cbe000c042000090646006f
:100e0c0014c0b300044e78000c02e800004aeb005a
:100e1c00c4aa2c00445d88000204200089007800dc
:100e2c000080eb00fe170700640246000004eb0094
:100e3c00000a7800180298000304200009017800c9
:100e4c000000250011002000dcfd07000304200039
:100e5c000c0178000004250011002000d7fd0700cc
:100e6c008840780014002000a603370084c4b30027
:100e7c0084cf52002d003a008040eb000002eb00c2
:100e8c00c5bf200095cf10009e033200e54f5100e6
:100e9c000e003a00a3409000c808dd0013429000f9
:100eac000482fb0081027200240020001100090062
:100ebc008402d80002e22400850078006e16070038
:100ecc008040eb00140020008e0337008040eb00c4
:100edc000002eb00e84f51008a033a0033409000c7
:100eec004800dd00234290000482fb0000007200e9
:100efc00d3409000c808dd00434290000482fb0000
:100f0c0081007200734190004811dd006342900033
:100f1c000482fb0002017200825088005616070002
:100f2c008040eb00140020007603370094c7b30018
:100f3c0084cf520011003a008040eb000002eb001d
:100f4c00c5bf200095cf10006e03320081407800a1
:100f5c00e34f51006b033a00234090004800dd0042
:100f6c00134290000482fb000000720097180700e7
:100f7c008040eb00140020006203370074c7b300fc
:100f8c0084cf520040003a008040eb000002eb009e
:100f9c00e64f51005b033600c5bf200095cf100013
:100fac0058033200934290008582fb00a4a92000d4
:100fbc0014437800054a78000402e8009442780053
:100fcc00004aeb00a34290008582fb003343900063
:100fdc004833dd00c4c22000050a7300c3429000f0
:100fec008582fb00534390004833dd000482e80007
:100ffc00050a7300634390000683fb000603d100cf
:10100c00e6024200864a78008080eb00948f100044
:10101c0008003a00a4a920001464a00015c0b30075
:10102c0054c32000054a780067025200000aeb0006
:10103c0004003700a4a920001464a10054c32000ac
:10104c00004aeb0044022000e84f510002003a0035
:10105c00734290000482fb0094618800a4a92000d4
:10106c0014427800e14262008040eb001400200042
:10107c0081cf520023033200a4a920001444a10004
:10108c00140020001f033700b4c5b30084cf5200f6
:10109c0022003a008040eb000002eb00e34f5100cd
:1010ac0018033a0023439000134290008002eb0097
:1010bc00e14f520005003a008642780065c0b2004c
:1010cc008582fb008502e900cf2ade00c4bf200028
:1010dc00054a7800b5c5b300e5e79f0081c0b300b1
:1010ec00f1e79f0035c0b30085ef9f0095ef9f009f
:1010fc0045c1b300a5ef9f0015c0b300b5ef9f002d
:10110c0065c0b300c5ef9f0094427800d5ef9f00f7
:10111c001442780014002000fa02370054c6b300c1
:10112c0084cf5200fb003a008040eb000002eb0041
:10113c00c5bf200095cf1000f2023200e84f5100dd
:10114c000f003a0073419000c3409000c808dd00c6
:10115c00334290000482fb00810072002340900017
:10116c004800dd00134290000482fb000000720076
:10117c00741607008040eb0014002000e1023700d9
:10118c008040eb000002eb00e64f5100dd023a001c
:10119c0013429000e14f520003003200e24f520024
:1011ac0067023a000500370013029000a30290007a
:1011bc0054608800656088000400370013029000ba
:1011cc00a302900034608800456088005e60800057
:1011dc006560800085bf9f003c6080004d60800092
:1011ec000c01be000fba97000e0078008400780046
:1011fc007dfd0700e00f5000030035000e04780061
:10120c008fbc9700010037000c04be0002002000c8
:10121c0003f823000800be0073fd0700e00f500028
:10122c009b00350002002000030024000800be00d3
:10123c006dfd0700e00f50005d003500020020003e
:10124c00030824000800be0067fd0700e00f5000f3
:10125c005b00350002002000031024000800be00d3
:10126c0061fd0700e00f500059003500020020001e
:10127c00031824000800be005bfd0700e00f5000bf
:10128c005700350002002000032024000800be0097
:10129c0055fd0700e00f50005500350002002000fe
:1012ac00032824000800be004ffd0700e00f50008b
:1012bc005300350002002000033024000800be005b
:1012cc0049fd0700e00f50005100350002002000de
:1012dc00033824000800be0043fd0700e00f500057
:1012ec004f00350002002000034024000800be001f
:1012fc003dfd0700e00f50004d00350002002000be
:10130c00034824000800be0037fd0700e00f500022
:10131c004b00350002002000035024000800be00e2
:10132c0031fd0700e00f500049003500020020009d
:10133c00035824000800be002bfd0700e00f5000ee
:10134c004700350002002000036024000800be00a6
:10135c0025fd0700e00f500045003500020020007d
:10136c00036824000800be001ffd0700e00f5000ba
:10137c00430035000200200003702c008802780026
:10138c0009027800050078008400780016fd07003b
:10139c008040eb000002eb00e00f500059023d00d2
:1013ac00f40020000800200009702c003b003700de
:1013bc00140020000800200009002400370037002a
:1013cc002400200008002000090824003300370006
:1013dc003400200008002000091024002f003700e2
:1013ec004400200008002000091824002b003700be
:1013fc00540020000800200009202400270037009a
:10140c006400200008002000092824002300370075
:10141c007400200008002000093024001f00370051
:10142c008400200008002000093824001b0037002d
:10143c009400200008002000094024001700370009
:10144c00a4002000080020000948240013003700e5
:10145c00b400200008002000095024000f003700c1
:10146c00c400200008002000095824000b0037009d
:10147c00d400200008002000096024000700370079
:10148c00e400200008002000096824000300370055
:10149c000800200009f823000002eb00f5c0b3009f
:1014ac0084c25200e5ef9f0002002000037024006c
:1014bc008c0278000d02780005007800840078001a
:1014cc003ffd07000801be0076fc0700c8fc0700c2
:1014dc000006780002002000037024008e027800c1
:1014ec000fba9700050078008400780034fd0700df
:1014fc000801be006bfc0700bdfc07006fe99700fc
:10150c008c0078008f1507008040eb001400200041
:10151c00fc01370094c6b30084cf5200fb003a00a4
:10152c008040eb000002eb00c5bf200095cf1000ff
:10153c00f4013200e84f51000f003a007341900063
:10154c00c3409000c808dd00334290000482fb00c9
:10155c0081007200234090004800dd00134290008f
:10156c000482fb0000007200881507008040eb002d
:10157c0014002000e30137008040eb000002eb0078
:10158c00e64f5100df013a0013429000e14f520048
:10159c0003003200e24f52006c013a0005003700a4
:1015ac0013029000a302900014608800256088004c
:1015bc000400370013029000a3029000f45f88002f
:1015cc00056088001e6080002560800085bf9f003c
:1015dc00fc5f80000d6080000c01be000fba97000c
:1015ec000e007800840078007ffc0700e00f5000ac
:1015fc00030035000e0478008fbc97000100370003
:10160c000c04be000200200003f823000800be00fa
:10161c0075fc0700e00f50009b0035000200200015
:10162c00030024000800be006ffc0700e00f500010
:10163c005d00350002002000030824000800be00f5
:10164c0069fc0700e00f50005b0035000200200031
:10165c00031024000800be0063fc0700e00f5000dc
:10166c005900350002002000031824000800be00b9
:10167c005dfc0700e00f5000570035000200200011
:10168c00032024000800be0057fc0700e00f5000a8
:10169c005500350002002000032824000800be007d
:1016ac0051fc0700e00f50005300350002002000f1
:1016bc00033024000800be004bfc0700e00f500074
:1016cc005100350002002000033824000800be0041
:1016dc0045fc0700e00f50004f00350002002000d1
:1016ec00034024000800be003ffc0700e00f500040
:1016fc004d00350002002000034824000800be0005
:10170c0039fc0700e00f50004b00350002002000b0
:10171c00035024000800be0033fc0700e00f50000b
:10172c004900350002002000035824000800be00c8
:10173c002dfc0700e00f5000470035000200200090
:10174c00036024000800be0027fc0700e00f5000d7
:10175c004500350002002000036824000800be008c
:10176c0021fc0700e00f5000430035000200200070
:10177c0003702c00880278000902780005007800bc
:10178c008400780018fc07008040eb000002eb009e
:10179c00e00f50005b013d00f40020000800200029
:1017ac0009702c003b0037001400200008002000ba
:1017bc000900240037003700240020000800200016
:1017cc0009082400330037003400200008002000f2
:1017dc00091024002f0037004400200008002000ce
:1017ec00091824002b0037005400200008002000aa
:1017fc000920240027003700640020000800200086
:10180c000928240023003700740020000800200061
:10181c00093024001f00370084002000080020003d
:10182c00093824001b003700940020000800200019
:10183c000940240017003700a400200008002000f5
:10184c000948240013003700b400200008002000d1
:10185c00095024000f003700c400200008002000ad
:10186c00095824000b003700d40020000800200089
:10187c000960240007003700e40020000800200065
:10188c0009682400030037000800200009f8230031
:10189c000002eb00f5c0b30084c25200e5ef9f00dc
:1018ac0002002000037024008c0278000d027800e6
:1018bc00050078008400780041fc07000801be0098
:1018cc0078fb0700cafb0700000678000200200026
:1018dc00037024008e0278000fba97000500780080
:1018ec008400780036fc07000801be006dfb070081
:1018fc00bffb07006fe997008c007800a31407006a
:10190c008040eb0014002000fe003700f7cf52009f
:10191c001d003a008040eb000002eb00e54f510047
:10192c00f8003a00c5bf200095cf1000f50032003a
:10193c00846e240014427800ea4252008140780000
:10194c000002eb00e1cf5200ee003e00234390007a
:10195c004833dd00134290000482fb0005aa2000ee
:10196c00840a730015027800140020000600280079
:10197c00950f1300e3003a0014002800045588006a
:10198c0014002000df00370024c7b30084cf5200be
:10199c0023003a008040eb000002eb00e34f5100c3
:1019ac00d8003a00c5bf200095cf1000d5003200fa
:1019bc008140780005c5b300866e240096cf1200d6
:1019cc00d0003a00234390004833dd00934290004e
:1019dc008582fb00c4a92000050a7300054026007f
:1019ec00948f12000400340005027800e45488003f
:1019fc0014002000c3003700e65480008040eb0048
:101a0c001400200005c02900850f5300bd003d00c7
:101a1c0005027800e454880014002000b900370057
:101a2c00d4c6b30084cf520027003a008040eb00ac
:101a3c000002eb00e54f5100b2003a00c5bf200098
:101a4c0095cf1000af00320081407800856e2400e5
:101a5c0066c0b300954f1300aa003a0023439000d0
:101a6c004833dd00934290008582fb00e4a92000fe
:101a7c00050a73009402780014518000848f520080
:101a8c000500340011518000f15488008040eb00b7
:101a9c00140020009b003700f65480001551800084
:101aac008502ea008040eb0014002000850f5300f3
:101abc0094003d0015518000e4a92000050aea00bd
:101acc00140020008f003700e4c6b30084cf52000e
:101adc0011003a008040eb000002eb00e14f510096
:101aec0088003a00e4c6b300e4e79f007a87570009
:101afc00e4a92000146f7800144290001447980059
:101b0c0001427800a4ef9f0094ef9f0051c0b300f6
:101b1c00140020007b0037008040eb000002eb003b
:101b2c0006c7b30086cf520076003a00140020009e
:101b3c00e54f5100730032000002eb0071003700da
:101b4c008040eb000002eb006e0037008040eb00a1
:101b5c000002eb006b003700efc265000002eb00e7
:101b6c00efcf520044003a00843e200054378a00e4
:101b7c00d4bf2000144278008482fb00058342000d
:101b8c000281fb000002eb00820f53003a003c0084
:101b9c008502e9008582420063c27a000482fb0060
:101bac008582410095429000c82add0085027200b2
:101bbc00846e240014427800e64f52001400320068
:101bcc0005003e00e04f520028003200e24f520068
:101bdc0027003a0008003700ea4f52002400390071
:101bec00eb4f52000400360006c5b300864f52007e
:101bfc001f003a001300370004002800848f5200a5
:101c0c0001003a001500280005558800180037001f
:101c1c0014518000848f5200020034001551800052
:101c2c0006003700145180000402ea00848f520031
:101c3c0002003d00155180008502ea00f554880031
:101c4c000b00370004c02900848f520001003d00b6
:101c5c008402780004402600848f52000100340076
:101c6c0084027800e5548800010037007a130700dd
:101c7c00e5080700140020008040eb00210037002d
:101c8c0093427800e1cf420010003a008040eb0014
:101c9c000002eb00e14f51001a003a0000c2eb00c9
:101cac00e4e79f0084c0b300f4e79f0034c0b300a6
:101cbc0084ef9f0094ef9f0044c1b300a4ef9f00fa
:101ccc0051c0b300140020000e003700e0cf5200ca
:101cdc0004003a000000fe008040eb0014002000dd
:101cec00080037008040eb0014002000eccf5200bd
:101cfc00040032000002eb00edcf520001003a006c
:101d0c0014002000e00f52000e003200e0cf500013
:101d1c000c003200670565004855dd00d4bf20007b
:101d2c00144278000482fb004422dd000a05720094
:101d3c000b0fb2004458de00000075007a8157008a
:101d4c00081507004f0778004f06be004f05be0070
:0c1d5c004f04be00ef00b10000000600c4
:020000040000fa
:101d68003600f800809fbe00829fbe00849fbe00a0
:101d7800869fbe00889fbe008a9fbe008c9fbe00c3
:101d8800440f20002402880065100700e3a7200004
:101d98001303780006538800e48341009702780013
:101da8001553880034002000110009000403d800ee
:101db8008000fd00810978000603ea00050353004e
:101dc800110009000403d80000548800110009001c
:101dd8008402d800800b7800a4a92000144278005f
:101de800614262008004eb000b00320044a1200035
:101df8008040eb0094cf100004003200a0a3200024
:101e08006606070080047800030037003b130700cc
:101e180080047800295388006c0e0700004578007c
:101e2800a4a9200014427800624262000500320032
:101e3800f60e07000082fb00255b280065447a0047
:101e480004003700c8032000110009008804d800e6
:101e58000044e800b4aa2000944f1400bf003200e8
:101e6800a4a9200014427800704262000f003200da
:101e7800e314070044a120000041eb00944f110037
:101e88000a003a00a4378200800f520006003a0088
:101e9800a4aa2000944f14000400320044c4200077
:101ea8001434a00001003700a0378a00a4a920003c
:101eb800144278006142620049003200a4a920005f
:101ec800144278006242620045003200cc140700d8
:101ed80094378200800f520006003a00a4aa20001e
:101ee800944f14000400320044c420001434a000ad
:101ef8000100370090378a00e14f540013003a0080
:101f0800b4aa200065c0b30094cf12000f003a00b5
:101f18007e8244006455880075162000850f5200a3
:101f28005e03340064eb2f00090242006455880008
:101f380065c0b300a4aa2000054a780015c0b30004
:101f4800b4aa2000054a780037003700e64f54004d
:101f580011003a00b4aa200016c0b300944f130031
:101f68000d003a007e8254006455880050033b00ff
:101f7800a4142000090242006455880086427800b3
:101f8800a4aa2000054a780065c0b300b4aa2000be
:101f9800054a780065003700b4aa2000944f540021
:101fa800090034007e8244006455880075162000bc
:101fb800850f52000a00340064eb2f00090242002a
:101fc80064558800060037007e82540064558800f6
:101fd80003003b00a4142000090242006455880055
:101fe800b4aa2000a5aa2000944a7800084a7800dc
:101ff8000802fb00cfa2de0061025200e0825a0014
:10200800e50f5200e08f5a0054003e0004600100c2
:1020180005003700110037001d0037002900370080
:102028003500370041003700e4a7200094558800a8
:1020380084ab2000f455880004a82000845588004b
:1020480064ab2000e455880024a82000745588005b
:1020580044ab2000d455880040003700e4a7200096
:102068009455880084ab2000f455880024a82000eb
:102078008455880044ab2000e455880004a820005b
:102088007455880064ab2000d455880033003700ad
:1020980004a820009455880064ab2000f4558800fb
:1020a80024a820008455880044ab2000e45588000b
:1020b800e4a720007455880084ab2000d45588001c
:1020c8002600370004a820009455880064ab20003f
:1020d800f4558800e4a720008455880084ab2000cc
:1020e800e455880024a820007455880044ab2000db
:1020f800d45588001900370024a82000945588007a
:1021080044ab2000f4558800e4a7200084558800db
:1021180084ab2000e455880004a82000745588008a
:1021280064ab2000d45588000c00370024a8200098
:102138009455880044ab2000f455880004a820007a
:102148008455880064ab2000e4558800e4a720008b
:102158007455880084ab2000d45588000804fb001f
:1021680024002000110009000404d80081457800eb
:10217800a4a92000144278006242620017003200cd
:10218800a4a9200014427800e14262000002eb009a
:10219800200032006455800004825400350b200072
:1021a800850f5200020034008416b1000400370085
:1021b800c5f42f00850f520001003d008416b000c1
:1021c800fe0f420001003d0024fe2f00fe0f5200ca
:1021d80006003400e401200004003700c403200096
:1021e800110009008404d8007e825000e00f5200dc
:1021f80008003d000402ea0004024200855f28004e
:10220800e5047a00a55b280065047a000804ea0062
:102218000500370004024200855f2800e5047a00c3
:10222800a55b280065047a00e0cf55002500320040
:1022380095558000845580009503780014805300dc
:102248000980b90076558000160178000891b90018
:10225800c11bdd004f11de0002817300cf99de0043
:10226800d7ff2f000791b900c10bdd004f00de003a
:1022780000807300cf88de0027aa2000800b410071
:10228800160078000980b90095027800148352007e
:1022980008b3b900cf8ade004109dd004f02de0035
:1022a800040271008402ea00413add004f33de0087
:1022b80006037200cfbbde0044aa2000068a520043
:1022c800220037009555800084558000150378005a
:1022d800140053000980b900765580001601780073
:1022e8000891b900c11bdd004f11de0002817300a7
:1022f800cf99de006311b900c10bdd004f00de008d
:1023080000807300cf88de0027aa2000800b4100e0
:10231800160078000980b9009502780014835200ed
:1023280008b3b9004109dd004f00de00000071006c
:10233800cf88de00413add004f33de00060372002d
:10234800cfbbde0044aa2000060a500044a12000aa
:102358008042eb0094cf1200ca003a00846e240039
:10236800144278006a425200e14f520092003e0047
:10237800854f5500c3003200055580006450800029
:1023880004825200856e2400b6c0b300954f130036
:102398005a003a00e2518000e0518000f651800076
:1023a8000752800000004200cf80de00000043009a
:1023b80081804b0002015200cf91de00441bdd00fa
:1023c800cc13de00870373004413dd0000034300d1
:1023d80081834b00f6518800075288001051800015
:1023e800f651800007528000cf80de00860f500033
:1023f800878f580005003d0016518000cfb3de00de
:10240800f6518800075288000d00370010518000ef
:10241800f6518000075280000000ea00cf80de00fd
:10242800860f5000878f5800050034001651800031
:102438000603ea00cfb3de00f65188000752880091
:10244800656f24008043eb0095cf1300270032000e
:10245800f651800007528000e00f5300e08f5b00c8
:1024680011003400d0518000f651800007528000de
:10247800cf80de00860f5000878f580004003d0093
:10248800d55180008502e800d55188004800370002
:10249800f651800007528000d6518800656f2400ed
:1024a800804aeb0042003700d0518000f65180008e
:1024b80007528000cf80de00860f5000878f5800bb
:1024c80004003400d55180008502e900d551880008
:1024d80037003700f651800007528000d651880037
:1024e800656f2400804aeb0031003700f651800008
:1024f80007528000d65188002d00370060378200cf
:10250800e2518000020152000091b9007537820043
:10251800e0518000000042000580b900b6518000fb
:10252800c751800002004000838048000003430038
:1025380081834b00b6518800c7518800b051800094
:10254800c1518000c6528000d7528000860f5000cb
:10255800878f580005003400c0528000d152800097
:10256800b0518800c15188000f003700c052800068
:10257800d1528000b6518000c75180006000100021
:10258800e0801800860f5000878f5800060034003e
:10259800c6528000d752800060031300e0831b00fe
:1025a800b6518800c75188008002eb00d5518800d9
:1025b800e451880033003700846e240061c0b30002
:1025c80094cf100015003a006022b800b45188007a
:1025d800c5518800f2548000d2518800d55180003e
:1025e80014518000848f520003003400145180007d
:1025f800d45188002300370015518000d451800041
:102608008502ea00848f52001e00340014518000b5
:102618000402ea00d45188001a00370004c5b30048
:10262800856e2400954f120011003a00e654800090
:10263800cfb3de0024a520009402fb00e5825200ff
:102648000600be00050178000201e900030033001e
:102658000000400081804800fbff3700b05188002f
:10266800c15188000002eb00d451880005003700f2
:102678006022b800b4518800c55188000002eb0000
:10268800d4518800846e2400b5c0b30094cf1200e2
:102698000700320066c0b300944f130004003200f4
:1026a80044a120008043eb0094cf13003c0032008b
:1026b800d551800014558000048252007252800067
:1026c800155280008502520002a9b9008652800086
:1026d800155280008502420006abb90050518000b7
:1026e800615180000203430083834b0006034000ce
:1026f8008783480056518800675188001452880023
:102708005651800067518000a4528000b552800065
:10271800840f5300858f5b0005003400a0528000b1
:10272800b152800050518800615188000f00370075
:10273800a6528000b7528000545180006551800035
:1027480060031300e0831b00840f5300858f5b0038
:1027580006003400a4528000b552800060021200c6
:10276800e0821a0054518800655188005651800053
:102778006751800024a520009402fb000600be00db
:10278800050178000201e900030033008180d100cf
:102798000080d300fbff3700000578008500370074
:1027a8001555800014518000848f520003003400b6
:1027b80014002000345288000700370015558000a7
:1027c800145180000402ea00848f520002003d0088
:1027d8000082eb003452880034528000e00f52002f
:1027e8005700320034528000e10f520020003a00b6
:1027f80015518000145580000482520070528000e8
:1028080012528000020152000091b90085528000e6
:1028180010528000000042000580b9007651800007
:102828008751800002004000838048000003430075
:1028380081834b00765188008751880014528800a4
:102848007451800085518000e00f5200e08f5a00db
:102858002a0035006022b80074518800855188002c
:102868000002eb003452880014528800230037001d
:1028780034528000e10f420020003a0015518000d8
:10288800145580008502ea000482520070528000cc
:1028980012528000020152000091b9008552800056
:1028a80010528000000042000580b9007651800077
:1028b80087518000020040008380480000034300e5
:1028c80081834b0076518800875188001452880014
:1028d8007451800085518000e00f5200e08f5a004b
:1028e80006003c006022b8007451880085518800b9
:1028f8000002eb003452880014528800b451800062
:10290800c55180007651800087518000060342003f
:1029180087834a0024a520009402fb000600be001d
:10292800050178000201e900030033008180d1002d
:102938000080d300fbff3700000578001d0037003a
:1029480004c5b300856e2400954f12000d003a00af
:10295800b6518000c751800024a520009402fb00d6
:102968000600be00050178000201e90003003300fb
:102978008180d1000080d300fbff3700000578007c
:102988000c003700b6518000c7518000046f240046
:102998009402fb000600be00050178000201e90070
:1029a800030033008180d1000080d300fbff370093
:1029b80000057800245580000402ea007652800061
:1029c80022528000020152000691b900855280000f
:1029d800265280000603420005b3b90090518000da
:1029e800a15180000203430083834b00060340008b
:1029f8008783480096518800a75188002452880090
:102a080096518000a7518000a4528000b5528000e2
:102a1800840f5300858f5b0005003400a4528000aa
:102a2800b552800094518800a55188000f003700e6
:102a3800a6528000b752800094518000a5518000b2
:102a480060031300e0831b00840f5300858f5b0035
:102a580006003400a4528000b552800060021200c3
:102a6800e0821a0094518800a55188009c5180008a
:102a7800ad51800024a520001402fb000402e900e7
:102a8800030033008d86d1000c86d300fbff37008e
:102a980024032000f7ff2700160320000600370054
:102aa8000402e90004003a00c4c520001474a00020
:102ab800be10070007003700150e8000e08f520097
:102ac80004003d00100e800080826300868f520053
:102ad800f3ff360054378200e00f5200090034003b
:102ae800543782000402e90054378a0054378200c0
:102af800e00f520003003a00b4c520001414a000ef
:102b0800aa1007004a538800240020001100090079
:102b18000405d80000057800110009000406d80053
:102b280009d2b9000881b900c118dd004f11de00d3
:102b380002817000cf99de00d7ff2f000793b900fc
:102b48004129dd004f22de0004027100cfaade0019
:102b58008402430008d3b9000980b900410add00a6
:102b68004f00de0000007200cf88de00cfbcde0020
:102b78004139dd004f34de000804710008044000cc
:102b8800e0cf5500010032000804ea00f455800047
:102b9800088a5200d4558000080a44008502ea00d9
:102ba800e4558000088a5200a2558000b155800083
:102bb800c0558000ec080700a4a920001442780042
:102bc800644262002b003a00445580000402e80089
:102bd80044558800f30f5200260034000002eb0031
:102be8004455880024aa20001400780014027800b4
:102bf80000a0b900f450800005518000d650800034
:102c0800e750800004025000858258004628dd0005
:102c18004a22de0004027000caaade000402430051
:102c280085824b00d4508800e5508800d45080003d
:102c3800e5508000e00f5200e08f5a0003003d008d
:102c48006022b800d4508800e5508800d650800033
:102c5800e7508000b4508000c5508000840f5300b6
:102c6800858f5b0003003400c4c520001414a00045
:102c78004e1007008480a9004f06be004f05be0015
:102c88004f04be004f03be004f02be004f01be00fe
:102c98004f00be003600f90000400600b4aa20002c
:102ca800a5aa2000944a7800084a7800defc37007c
:102cb800b4aa2000a5aa2000944a7800084a7800ff
:042cc8001afd3700ba
:020000040000fa
:102ccc003600f800809fbe00829fbe00849fbe002d
:102cdc00869fbe00889fbe008a9fbe008c9fbe0050
:102cec000800fa008700a9004a208000fa03b2000d
:102cfc001c0020000a66dd00052180000c826200a9
:102d0c002b0132000d7824004455dd000a85460065
:102d1c00ca459000ef856500e88f5500030034002c
:102d2c00d4c520001444a0008b0020009a427800e7
:102d3c0061c2620008003a000582fb004222de00fc
:102d4c001a4490007f0464004644dd0008047200bd
:102d5c00090020001e0037005a4490000884fb0034
:102d6c004244de000884fb000900200009f0a000aa
:102d7c002a4290000482fb003a4390006f036300e8
:102d8c004833dd000603720007002000463add00e0
:102d9c00ca32de00850272004632dd000404740083
:102dac00858474009a4278000582fb004222de0082
:102dbc001a4390007f0363004633dd000603720064
:102dcc00c232dd000002eb00040474008584740040
:102ddc00e60045000b0178006880570057f70700a4
:102dec000c86ea000c2188005a4290006242620074
:102dfc0006003a00e88157000b4178000800be003d
:102e0c00145f80000400010002003700d4c52000cc
:102e1c001424a0004a208000fa03b2001c002000f9
:102e2c000a66dd00052180000c826200e20032009f
:102e3c004455dd000a854600ca459000ef856500c3
:102e4c00e88f550003003400d4c520001444a000c2
:102e5c008b0020009a42780061c2620008003a00a0
:102e6c000582fb004222de001a4490007f046400bd
:102e7c004644dd0008047200090020001e003700e3
:102e8c005a4490000884fb004244de000884fb0096
:102e9c000900200009f0a0002a4290000482fb00e7
:102eac003a4390006f0363004833dd000603720061
:102ebc0007002000463add00ca32de0085027200af
:102ecc004632dd0004047400858474009a42780054
:102edc000582fb004222de001a4390007f03630050
:102eec004633dd0006037200c232dd000002eb0047
:102efc000404740085847400e60045000b0178001e
:102f0c00688057000df707000c86ea000c2188003a
:102f1c005a4290006242620006003a00e881570073
:102f2c000b4178000800be00145f80000400010013
:102f3c0002003700d4c520001424a0004a208000d1
:102f4c00fa03b2001c0020000a66dd000521800097
:102f5c000c8262009a0032004455dd000a8546005e
:102f6c00ca459000ef856500e88f550003003400da
:102f7c00d4c520001444a0008b0020009a42780095
:102f8c0061c2620008003a000582fb004222de00aa
:102f9c001a4490007f0464004644dd00080472006b
:102fac00090020001e0037005a4490000884fb00e2
:102fbc004244de000884fb000900200009f0a00058
:102fcc002a4290000482fb003a4390006f03630096
:102fdc004833dd000603720007002000463add008e
:102fec00ca32de00850272004632dd000404740031
:102ffc00858474009a4278000582fb004222de0030
:10300c001a4390007f0363004633dd000603720011
:10301c00c232dd000002eb000404740085847400ed
:10302c00e60045000b01780068805700c3f60700e6
:10303c000c86ea000c2188005a4290006242620021
:10304c0006003a00e88157000b4178000800be00ea
:10305c00145f80000400010002003700d4c520007a
:10306c001424a0004a208000fa03b2001c002000a7
:10307c000a66dd00052180000c82620052003200dd
:10308c004455dd000a854600ca459000ef85650071
:10309c00e88f550003003400d4c520001444a00070
:1030ac008b0020009a42780061c2620008003a004e
:1030bc000582fb004222de001a4490007f0464006b
:1030cc004644dd0008047200090020001e00370091
:1030dc005a4490000884fb004244de000884fb0044
:1030ec000900200009f0a0002a4290000482fb0095
:1030fc003a4390006f0363004833dd00060372000f
:10310c0007002000463add00ca32de00850272005c
:10311c004632dd0004047400858474009a42780001
:10312c000582fb004222de001a4390007f036300fd
:10313c004633dd0006037200c232dd000002eb00f4
:10314c000404740085847400e60045000b017800cb
:10315c006880570079f607000c86ea000c2188007d
:10316c005a4290006242620006003a00e881570021
:10317c000b4178000800be00145f800004000100c1
:10318c0002003700d4c520001424a0004a2080007f
:10319c00fa03b2001c0020000a66dd000521800045
:1031ac000c8262000c003a0054002000070037002b
:1031bc001400200005003700240020000300370015
:1031cc00340020000100370044002000e50f5200bd
:1031dc0046003200470037004455dd000a854600a2
:1031ec00ca459000ef856500e88f55000300340058
:1031fc00d4c520001444a0008b0020009a42780013
:10320c0061c262001f0032005a4490000884fb0027
:10321c004244de000884fb000900200009f0a000f5
:10322c002a4290000482fb003a4390006f03630033
:10323c004833dd000603720007002000463add002b
:10324c00ca32de00850272004632dd0004047400ce
:10325c00858474009a4278000582fb004222de00cd
:10326c001a4390007f0363004633dd0006037200af
:10327c00c232dd000002eb0004047400858474008b
:10328c00080037009a4278000582fb004222de00db
:10329c001a4490007f0464004644dd000804720068
:1032ac0009002000e60045000b01780068805700fb
:1032bc0022f607000c86ea000c2188005a42900086
:1032cc006242620003003200d4c520001424a00026
:1032dc0008003700e88157000b4178000800be0059
:1032ec00145f80000400010002003700b4c5200008
:1032fc001404a0000080fa004f06be004f05be006b
:10330c004f04be004f03be004f02be004f01be0073
:0c331c004f00be003600f9000040060023
:020000040000fa
:10332800e84600001600000002000000b0b2ff00ee
:10333800ff0c000010000a0000ff7f00ff7f010063
:1033480000ff7f00c4ff3c0000000000000a0000ee
:10335800d800000000000000e0460000080000005f
:1033680000000000fe46000002000000000000000f
:10337800ae0b000032000000020000000000000058
:10338800000000000002000002010200ff0202002b
:103398000200ff000202010002ff01000002020019
:1033a800020202000202000001ff02000102020004
:1033b800ff0002000202ff000201020000000000fc
:1033c800d80a00008e00000000000000580c000021
:1033d80006000000000000005e0c00000200000073
:1033e8000200000001000000500c0000080000006e
:1033f800000000001e0c00000e000000000000008d
:10340800660b0000480000000200000001000000f8
:1034180000000000000000000000000000000000a4
:103428000000000000000000000000000000000094
:103438000000000000000000000000000000000084
:103448000000000000000000000000000000000074
:103458000000000000000000000000000000000064
:10346800000000000000000000000000fc0b00004d
:1034780012000000000000000e0c00001000000008
:103488000000000000080000000200000200000028
:1034980000002100104220006330840040a5500045
:1034a800c660e7007008810029914a00a16bb1004d
:1034b8008cc1ad00d1cee100eff131001210020055
:1034c8007332520022b552009442f70072d662005d
:1034d80039931800837bb3005aa3bd00d39cc30063
:1034e800fff3de00e36224004334200004011400eb
:1034f800e664c70074a4440085546a00a54bb5006f
:103508002885090095eee500cff5ac00c58dd500fe
:1035180053367200261116003006d70076f666007c
:103528009556b400465bb7007aa71900973887000c
:10353800dff7fe00e79dd700bcc7c40048e5580088
:103548008668a70078400800611802002823380020
:10355800ccc9ed00d98ee900aff948008969990016
:103568000aa92b00b9f55a00d44ab7007a966a001e
:10357800711a50000a333a00122afd00dbdccb0036
:10358800bffb9e00eb799b00588b3b00bb1aab003e
:10359800a66c87007ce44c00c55c22002c033c0030
:1035a800600c41001caeed008ffdec00cdcddd00c0
:1035b8002aad0b00bd688d00499d97007eb66e0050
:1035c800d55ef4004e133e00322e51001e700e00e0
:1035d8009fffbe00efdddf00fccf1b00bf3aaf004e
:1035e800599f78008f889100a981ca00b1eba1008a
:1035f8000cd12d00c14ef1006fe1800010a1000038
:10360800c230e30020045000254046007067600087
:10361800b983980093fba300dab33d00c31cd30021
:103628007fe35e00f3b102009012f30022d2320071
:1036380035421400527762005672ea00b5cba500f5
:10364800a8958900856ef5004fe52c00d50dc500bd
:10365800e234c30024a014008104660074476400a7
:103668002454050044dba700fab7990087b89700ef
:103678005fe77e00f71dc7003cd7d30026f236006f
:103688009106b00016576600767615004634560047
:103698004cd96d00c90ef9002fe9c80099e98900d5
:1036a8008ab9ab00a9445800654806007827680025
:1036b800c018e10008823800a3287d00cb5cdb003d
:1036c8003feb1e00fbf98b00d89bbb00ab9abb00fd
:1036d800754a54005a376a00167af1000ad01a005f
:1036e800b32a92003a2efd000fed6c00dd4dcd009f
:1036f800aabd8b00ade89d00c98d26007c076c0033
:10370800645c45004ca23c00832ce0001cc10c000a
:103718001fef3e00ff5dcf007cdf9b00afbabf000c
:10372800d98ff8009f176e00367e55004e745e00e4
:10373800932eb2003ed10e00f01e0000e00b0000f8
:103748001c0000000000000000470000800000008e
:10375800000000008047000080000000000000001a
:10376800460c00000a000000000000002c0c0000bd
:103778000e0000000200000000005a0000000000d7
:103788000000000000ffff00ffff00003a0c0000ef
:0c3798000c000000000000000000000019
:020000040000fa
:1037a400889fbe0000047800a4a920001442780079
:1037b400624262000000eb000d013a0044a12000c7
:1037c4008040eb0094cf1000090132008661800034
:1037d4006333b90024002000110009000403d80059
:1037e4008004780044a1200021c0b30094cf1000cd
:1037f4000e003c00f4c320008042eb0094cf120082
:103804000a0032000542780055c32000954f12008b
:103814000100320034c0b30045a12000844a78007e
:1038240044c420001444a100780e070044a12000e1
:1038340016c0b300944f13001f003a0035518000a6
:103844006656800024002000110009008402d8007c
:10385400860f5000030034000603e8006656880013
:103864001500370074568000848f54000b00340018
:10387400255680008502e80025568800860c200025
:10388400868f52000c0034008002eb00255688001d
:103894000402e800745688000700370084f82f00fb
:1038a400e4378a000002eb00d4378a0025c0b30055
:1038b40044a12000054a780044a1200020c0b300a0
:1038c400944f100019003a00745680008904ea00ed
:1038d400848f54000b003d00155680008502e800db
:1038e40015568800860c2000868f52000f00340085
:1038f4008002eb00155688000402e9007456880023
:103904000a0037008004eb0069568800090c78002f
:1039140044c420001424a000c4c520001444a00002
:10392400230d070044a12000094a780044a1200087
:1039340031c0b30094cf100012003a0074568000d6
:10394400c4378a006456800035518000850f5200c8
:1039540003003d000402e8006456880009003700b3
:10396400045680000402e800045688000571220011
:10397400850f52000300340045c0b30044a1200069
:10398400054a780044a1200045c0b30094cf12003a
:1039940016003a00c4378200e537820004824200f0
:1039a40074568800345680000402e80034568800b7
:1039b40005532700850f52000c003600d4618000a7
:1039c40080618000250f800000abb9001100090060
:1039d400443bd800505688000002eb00345688005f
:1039e40055c0b30044a12000054a780044a120003a
:1039f40055c0b30094cf120070003a00c43782005f
:103a0400d537820004824200745688003456800000
:103a14000402e8003456880005a62e00850f5200e3
:103a2400660036000002eb0064568800d461800012
:103a340080618000250f800000a9b90011000900f1
:103a44004419d80000017800425688005656800078
:103a540006025100350b2000850f5200030034008c
:103a64008416b100850f5200fdff3c00c5f42f0001
:103a7400850f520003003d008416b000850f5200ec
:103a8400fdff35008403780007f0a7008703ea00f0
:103a9400a5052000858f5300310034002500200047
:103aa400110009000502d800000278000602420055
:103ab40075162000850f5200030034008416b100ef
:103ac400850f5200fdff3c00e00f520002003d0054
:103ad4008416b000feff3300e6528800f2528800dc
:103ae400c7378200a705b000e5378200d6378200c9
:103af4000503430025002000110009000503d80038
:103b040000834300e5c22000840a53007416200099
:103b1400950f120006003400050278007516200087
:103b240081e92f00148a4000948f1200fcff3c00ae
:103b340074618000e00f520006003d00e4c22000e2
:103b440085162000148a42000003eb00940f130032
:103b5400fbff350044a12000004aeb0017003700aa
:103b6400d4378200e00f5200090032000002eb005b
:103b7400d4378a0085f82f00e5378a003456880048
:103b840045c0b30044a12000054a78000b0037006b
:103b94008004eb0069568800090c780044c42000b6
:103ba4001444a1001454a000c4c520001444a0006f
:103bb4007f0c070044a12000094a78006056800069
:103bc400000c78007056800074162000840f50009a
:103bd400030034008016b100840f5000fdff3c0048
:103be400e00f500002003d008016b000feff3300dd
:083bf4004f04be0000000600b2
:020000040000fa
:103bfc00e6874700889fbe008a9fbe008c9fbe0050
:103c0c008e1f7800c60907007c0a0700030c07000a
:103c1c00a400200034508800460607008660a900e6
:103c2c009660a800270d0700300d07009460a800cf
:103c3c0044a7200003000900005aeb0044c42000f4
:103c4c00004aeb000001eb006000b8000a0b070013
:103c5c0048a020008004eb00b40c0700e90a070020
:103c6c00e00f500002003200090c7800faff370018
:103c7c000082eb0024508800060d0700760b07002d
:103c8c00e400200005002000f4b79f0085bf9f00d2
:103c9c000002eb0043002000728157000000250059
:103cac001100200064f207009760a8006fe89700ed
:103cbc00fc0b0700a4a92000944278008042eb0082
:103ccc00054a78000402e80014437800054a78009d
:103cdc00c5bf20000402e9000043eb00954f130020
:103cec00fdff32009443780061c3630003003a0087
:103cfc009443780062c36300f7ff320016518000d2
:103d0c00e00f5300f4ff3200a6528000b75280003f
:103d1c00e00f5300e08f5b00efff3200a4a92000fe
:103d2c00144278006142620004003a00a4a9200009
:103d3c0014427800704262000b003200a4a92000eb
:103d4c00144278000481fb004311de0061416100e4
:103d5c0044c3200094407800606180008180fb00a7
:103d6c00e3060700020037008b40a9009b40a90026
:103d7c0044a12000004aeb0044c420001444a100dc
:103d8c00a4a9200014427800624262000c003200a8
:103d9c00a4a920001424a10044c3200014427800dc
:103dac000481fb006611b900cf91de0000002000f9
:103dbc001100200036f30700080d07000e00370035
:103dcc00a4a9200014427800644262000100320071
:103ddc00250d0700a4a9200014427800614262005e
:103dec000500320015c0b30044a12000054a78003c
:103dfc0044c420001444a000046f24001441780033
:103e0c007137820060378200600b0700b20c07002c
:103e1c00846e2400004aeb006409200034508800b2
:103e2c000082eb0024508800770007008005eb002f
:103e3c006eaa2000886e24006ca020008c86e900fd
:103e4c00a9c520006f0a0700e00f50000a003200dd
:103e5c000042eb009e4f1200010032006e0c070076
:103e6c0004cab300044c7800008eeb00e40120007f
:103e7c00840e78000c003700c262ab000a003200de
:103e8c001904a0000043eb009e4f13000100320008
:103e9c00610c0700004ceb0064092000040e780054
:103eac00808eeb00e7ff37001904a1008043eb0084
:103ebc0098cf13000600320004cab300984f1200ca
:103ecc0003003200c30c0700630c0700410b070012
:103edc0044518000848f5500daff32004b51800032
:103eec00946e24001445780004cab300984f120055
:103efc000e003a00e94f5500d2ff3a00650c07005e
:103f0c00460b07000042eb0045c42000844a7800b1
:103f1c00044c780064092000040e7800808eeb00bd
:103f2c00843e200054378a00c6ff37000042eb0065
:103f3c00984f120010003a00e64f5500070032006f
:103f4c00ea4f550005003200eb4f550003003200dc
:103f5c0004c5b300844f5500baff3a000a4c7800f0
:103f6c00000eeb00808eeb00843e200054378a005c
:103f7c00210c0700b3ff370066c0b300984f130045
:103f8c0009003200a7c0b30098cf1300060032001e
:103f9c00b4c0b300984f12000300320004c5b30044
:103fac00984f1200a7ff3a00e04f55000200320074
:103fbc00e94f550006003a00170c0700004ceb00c7
:103fcc0064092000040e7800808eeb009dff370002
:103fdc00e64f550007003200ea4f5500050032004d
:103fec00eb4f55000300320004c5b300844f55005d
:103ffc0094ff3a00980a0700843e200054378a0048
:08400c000a4c78008fff370019
:020000040000fa
:10401400881f780015558000f40f200063c120002c
:1040240084c96200c82ade000303e800054b780057
:10403400655080000603e80004cb6200c82ade0055
:104044000603e800054b7800465080005750800076
:10405400e4824100844a63004833de008502e800bc
:10406400864a7800465080005750800040bbde00ee
:10407400cfb3de008502e800844a63004833de00e3
:1040840067824100064a7800e4c0200014427800a8
:104094000480fb004400dd000080a000cf80de002f
:1040a40082c0b300c1000700a4a9200000c4b3006b
:1040b4001442600034003200e4c02000144278004e
:1040c4000480fb00440620000482b900451f200040
:1040d40084824200a460800018c0b300ea0f52003a
:1040e400040034006a835200860f520001003d0030
:1040f4000044eb000402e800a4608800848f5200ae
:1041040059003c000002eb00a4608800b561800007
:10411400f40f200063c1200084c96200c82ade00b5
:104124000303e800054b7800056280000603e800fd
:1041340004cb6200c82ade000603e800054b7800c1
:10414400e55280000603e80004cb6200c82ade00c2
:104154000603e800054b7800f55280000603e800ea
:1041640004cb6200c82ade0067824100054a780059
:104174004400dd009010b300cf80de0082c0b300a5
:104184008a00070038003700a4a9200001c2b30048
:1041940014c2600036003200e4c0200014427800eb
:1041a4000480fb00440620000482b900451f20005f
:1041b400848242009460800018c0b300ea0f520069
:1041c400040034006a835200860f520001003d004f
:1041d4000044eb000402e80094608800848f5200dd
:1041e40021003c000002eb009460880075508000c0
:1041f400f40f200063c1200084c96200c82ade00d5
:104204000303e800054b7800456280000603e800dc
:1042140004cb6200c82ade000603e800054b7800e0
:10422400a5c420009502fb000603e80004cb62004d
:10423400c82ade000603e800054b780065628000aa
:104244000603e80004cb6200c82ade00678241004e
:10425400054a78004400dd009010b300cf80de00f2
:1042640082c0b30051000700e04f54004d003a00f3
:10427400a4a9200014427800644262001e003200a7
:104284000400280032108000020262001a0032008a
:10429400e4c02000144278000480fb0084608000a5
:1042a4000402e800846088000003e800450620005a
:1042b40005b3b900860f52000f0035000002eb0071
:1042c400846088007450800085c12000844a78008e
:1042d4004822de008502e800844a78004400dd00bc
:1042e400c010b300cf80de00e381520042c0b300af
:1042f4002e0007002b00370063c12000846e2400c9
:10430400944978000302e80045c42000154a780067
:10431400b6518000c751800024a520009402fb0000
:10432400e58252000600be00050178000201e900a2
:10433400030033008180d1000080d300fbff3700ed
:104344000383e800004b78004802de00e38241006a
:10435400844a780064824100a5c52000154a78008b
:104364000402e8008502e800154a78000402e80027
:104374008502e800154a78000402e8008502e80096
:10438400154a7800e4c02000144278000480fb0041
:104394004400dd003010b300cf80de0082c0b300e3
:0c43a400020007004f0478000000060033
:020000040000fa
:1043b0000003be003064ab000b003200048020001c
:1043c0008021800000026200070032003264ab00ee
:1043d0000500320004802000952180000502620063
:1043e0000080eb00d8003a003064ab0034003a00a3
:1043f00003027800824078000601be0000702400ad
:10440000a804070044be2000000aeb00345f8000cf
:10441000e20f52000c003c00455f8000e28f52002a
:1044200009003c00565f8000e20f530006003c008c
:1044300067be2000840be8000782e800050ae80058
:104440000482e800060ae800245f8000630262003c
:10445000c5ff2f00872180000783620006037200da
:1044600086218800365f8000630363004833dd00e7
:10447000f4cf2f0080218000800362008703730047
:1044800087218800465f80006303630097218000d6
:10449000878262008502730095218800555f800045
:1044a000e3826200c82add009021800000026200e1
:1044b00004827200942188003064a8000000050086
:1044c00004802000852180000502620034003a004b
:1044d00003027800824078000601be0000712400cb
:1044e0007004070064be2000000aeb00245f800017
:1044f000e20f52000c003c00455f8000e28f52004a
:1045000009003c00565f8000e20f530006003c00ab
:1045100047be2000840be80064824300050ae800df
:104520000482e800060ae800245f8000630262005b
:10453000c5ff2f00872180000783620006037200f9
:1045400086218800365f8000630363004833dd0006
:10455000f4cf2f0080218000800362008703730066
:1045600087218800465f80006303630097218000f5
:10457000878262008502730095218800555f800064
:10458000e3826200c82add00902180000002620000
:1045900004827200942188003164a80000000500a4
:1045a0003264ab0034003a000302780082407800a5
:1045b0000601be00007224003a04070084be2000f9
:1045c000000aeb00245f8000e20f52000c003c0068
:1045d000355f8000e28f520009003c00565f80008a
:1045e000e20f530006003c0047be2000840be800a9
:1045f0000782e800050ae80064024200060ae800b3
:10460000245f800063026200c5ff2f0087218000c5
:10461000078362000603720086218800365f8000ef
:10462000630363004833dd00f4cf2f008021800056
:10463000800362008703730087218800465f800043
:104640006303630097218000878262008502730004
:1046500095218800555f8000e3826200c82add0052
:104660009021800000026200048272009421880080
:104670003264a80000000500030278008240780040
:104680000601be000073240006040700a4be20003b
:10469000000aeb00245f8000e20f52000c003c0097
:1046a000355f8000e28f520009003c00465f8000c9
:1046b000e20f530006003c0047be2000840be800d8
:1046c0000782e800050ae8000482e800060ae8001c
:1046d000245f800063026200c5ff2f0087218000f5
:1046e000078362000603720086218800365f80001f
:1046f000630363004833dd00f4cf2f008021800086
:10470000800362008703730087218800465f800072
:104710006303630097218000878262008502730033
:1047200095218800555f8000e3826200c82add0081
:1047300090218000000262000482720094218800af
:0c4740003364a8000000eb00000006003d
:020000040000fa
:10474c000600fa00889fbe008a1f78000002eb006a
:10475c004462880006a2a9000602a80004402600b4
:10476c00346288000602ab00d9003a009000370092
:10477c000402e900030032000602ab00fcff3a0021
:10478c008b0037003462880074ff2f00446288006d
:10479c004f0037000402e900030032000802ab00ae
:1047ac00fcff3a00880037003462880064ff2f0059
:1047bc0044628800460037000602e9000600320019
:1047cc00040378004110800081826300faff3a00f4
:1047dc0034628800820037003462880054ff2f0056
:1047ec00446288003a003700f40f2000a4bf9f00f9
:1047fc00b4bf9f00ee8157008000eb000240260002
:10480c00f73f2600f8fd2f000662a800000000000c
:10481c00326288000822ab00a1003200760037001b
:10482c000602e90004003200040378000822ab0001
:10483c00fbff32006f0037003462880034ff2f001a
:10484c0044628800220037000602e90005003200ad
:10485c00040378000682ab00fbff3a003462880048
:10486c00760037003462880024ff2f0044628800f1
:10487c0017003700afba9700c82add003fba97007f
:10488c000488720002003700f4fe2f004462880096
:10489c000662a9000642a800044026003462880083
:1048ac000642ab0076003a00690037000602e900c8
:1048bc0004003200040378000642ab00fbff3a0010
:1048cc00620037003462880014ff2f0044628800b5
:1048dc00646280000402e8006462880007e2a900b8
:1048ec00c902a90004fe2f00856c2000950a620005
:1048fc00cf02a8000004eb0029002000faef2f00e3
:10490c00110009000904d800618260004822dd0012
:10491c0056168000860265008502720055168800c6
:10492c0000192000010020004b0907000804e800d2
:10493c00f30f5400f2ff3a0007e2a8000019200020
:10494c00010020004409070004fe2f006120200014
:10495c00910862000642a8000440260034628800d8
:10496c000642ab0042003a003c0037000602e90068
:10497c0004003200040378000642ab00fbff3a004f
:10498c00350037003462880004ff2f004462880031
:10499c0015c0b300a4c42000054a78004062800012
:1049ac004f0578004f04be000080fa00000006009e
:1049bc00340d200014108800044026003462880056
:1049cc000802ab003f003a00044026003462880025
:1049dc0004002400451080000502620034003a00f7
:1049ec000400280046108000060262007eff3200a0
:1049fc00a5ff3700346288000410800084297800f9
:104a0c00010278000410a20004f0a7000402ea00de
:104a1c000402e9004f22de004522dd003610800042
:104a2c008602640085027200351088000682a80098
:104a3c00326288000682ab0015003a008100e80063
:104a4c00e38f500070ff3a008aff37003462880011
:104a5c0040628000d2ff37003462880000192000c9
:104a6c0001002000fc08070040628000ccff3700ea
:104a7c00f43f26003462880004037800beff370040
:104a8c00f43f260034628800040378008aff370064
:104a9c003762880007027800070378006dff370043
:104aac003762880007027800070378005fff370041
:104abc00f43f2600346288000403780007002400c9
:104acc0040ff3700f43f26003462880033ff370084
:0c4adc00f43f26003462880027ff3700fa
:020000040000fa
:104ae800c902a90004fe2f00856c2000950a620007
:104af800c922a900f40f2e00876c2000970b6200d2
:104b0800cf02a800cf22a800941820002410880003
:104b180007e2a9000722a8000742a9000782a80007
:104b280007e2a8009620a9008620a9008038210065
:104b380001002000c90807000002eb004462880059
:104b480006a2a9000602a8000440260034628800d4
:104b58000602ab0094003a004f0037000402e90057
:104b6800030032000602ab00fcff3a004a0037009f
:104b7800346288000082eb004462880044003700f9
:104b88000402e900030032000802ab00fcff3a000f
:104b98004700370034628800e4ff2f004462880031
:104ba8003b0037000402e90004003200471080008f
:104bb80087026300fbff3a00430037003462880035
:104bc800d4ff2f0044628800310037000402e90056
:104bd800040032004710800087026300fbff3a00a0
:104be8003f00370034628800c4ff2f004462880009
:104bf800270037000402e900030032000802ab0076
:104c0800fcff3a003c00370034628800b4ff2f00f4
:104c1800446288001e0037000402e90004003200e4
:104c28004710800087026300fbff3a003800370016
:104c380034628800a4ff2f00446288001400370003
:104c48000402e90004003200471080008702630074
:104c5800fbff3a00340037003462880094ff2f00cd
:104c6800446288000a0037000602e90005003200a5
:104c7800040378000642ab00fbff3a003462880068
:104c8800030037003462880084ff2f0044628800e4
:104c98004062800000000600240d200014108800e7
:104ca80004402600346288000802ab003b003a004a
:104cb8000440260034628800040024004510800067
:104cc8000502620031003a00044026003462880080
:104cd80004002800471080000702620027003a00fd
:104ce80094012000141088000440260034628800d3
:104cf8000802ab001e003a00044026003462880017
:104d080004002400451080000502620014003a00e7
:104d18000440260034628800040028004710800000
:104d2800070262000a003a000662a9000642a800cb
:104d380004402600346288000642ab00d4ff3200eb
:104d4800f43f26003462880004037800c9ff370066
:104d5800f43f26003462880006002800baff3700b6
:104d6800f43f26003462880006002400acff3700b8
:104d7800f43f260034628800a0ff3700f43f260085
:104d8800346288000600280092ff3700f43f2600ae
:104d9800346288000600240084ff3700f43f2600b0
:104da8003462880078ff3700f43f260034628800b8
:044db8006cff370055
:020000040000fa
:104dbc00e6874700889fbe008a9fbe008c9fbe007e
:104dcc008e1f78000007eb006e5388008e5388000e
:104ddc0021e3a8006044b8000805be000dfe2f00ba
:104dec008c3e200084322000148a66002003a90027
:104dfc002023a80040062000010020001608070010
:104e0c002023a9000002eb00030037000402e80095
:104e1c008c0f5200460032002003ab00fbff320027
:104e2c000518800085bf9f00461980000682660029
:104e3c000400a000441988002003a9002023a80026
:104e4c004006200001002000030807002023a900d1
:104e5c000c027800020037000402e9003600320030
:104e6c002003ab00fcff320004188000f4b79f0055
:104e7c0045198000058266000410a00044198800c2
:104e8c002003a9002023a8004006200001002000d8
:104e9c00f10707002023a9000002eb0003003700f4
:104eac000402e8008c0f5200250032002003ab00f6
:104ebc00fbff320004188000001880006608070011
:104ecc0074072000840f50001f0036000fbb9700a2
:104edc006132b9000a0542008b854a007fb3970006
:104eec006132b9000804420089844a000e07e800c8
:104efc00840c2000840f5700baff3a00820c20006b
:104f0c00030020000a00be0028ee07006053880052
:104f1c00820c2000030020000800be0023ee0700d6
:104f2c008053880021e3a9000000eb000700370044
:104f3c000080eb00050037000080eb000300370019
:104f4c000080eb0001003700e0ff2f004f077800d6
:104f5c004f06be004f05be004f04be006f00b100ef
:044f6c00000006003b
:020000040000fa
:104f7000889fbe000004780081037800946280005e
:104f8000880f52000b003d0004bab900110009005f
:104f9000482ad80080037800946280000491b90008
:104fa000110009004819d8000001780004047800b5
:104fb0000e0037008402ea00850f54000b003d000c
:104fc0008802ea0004bbb90011000900453bd80083
:104fd00080037800946280000491b90011000900f8
:104fe0004519d800000178000404ea0094628000aa
:104ff000848f53000b00340004c2b9001100090073
:10500000472ad80000047800946280000491b90017
:10501000110009004719d8000001780084037800c6
:105020000e0037008402ea00858f53000b003d001c
:105030008702ea0004c4b90011000900454cd800f9
:1050400000047800946280000491b9001100090006
:105050004519d800000178008403ea0094628000ba
:10506000840f51000b00340004c2b9001100090084
:10507000422ad800000478009462800004bbb90082
:1050800011000900423bd800800378000401780039
:105090000e0037008402ea00850f51000b003d002e
:1050a0000201ea0004c2b90011000900422ad80036
:1050b000000478009462800004bbb900110009006c
:1050c000423bd800800378000401ea00a46280001b
:1050d00004004400b00e880084804300c10e8800a4
:1050e00004014100d20e88004f04be0000000600fb
:020000040000fa
:1050f000889fbe008a9fbe000004a8008083fb003a
:1051000007844300080444000943200009044400c4
:105110008884e800e04f5300160032003a00200077
:105120000a83610068034300c219de00c519dd006f
:10513000030c4300820c78000004a9000004a800be
:105140000183fb00060143000201410003442000eb
:10515000030141000a85620068054500c32add009d
:10516000c52ade00c52add000509450014019800a6
:1051700012003700fa7f20000b0020008a0178001f
:10518000030161004511dd00680c41008b0c7800c3
:105190000004a9000004a8000183fb00860243006c
:1051a00085824200024420008282420003026200a3
:1051b0004522dd00840a78009b029800854120008a
:1051c00004422000e3cf50000f00360064c15000bd
:1051d00024422000e34f51000b00360068c150000c
:1051e000a541200044422000e34f51000600360054
:1051f000ecc0500064422000e3cf500002003600b3
:105200008002eb0005027800e3006300c208dd00c5
:10521000f20020008110dd000181ea00140161002c
:10522000010a7100e24f500008003e00670263006f
:1052300004024200300020000400dd000080ea008b
:1052400015006000843bdd00870a7000100020001c
:105250000600dd001424b7000004a9004f05be00bd
:085260004f04be00000006002f
:020000040000fa
:10526800889fbe008a9fbe008c9fbe0008c5200094
:105278008044eb00094578000df02300ebc52000c1
:105288001cc520000a4c7800d421ef00b0628000d1
:1052980065004000cf80de00f0060700a4628000b1
:1052a800d40e8800da01f800d801f900d801f80016
:1052b800d601f900c1e1a8008be0a9009be0a80095
:1052c80074002000840e880014002000a40e8800ba
:1052d8000042eb00984f120030003a00b0628000a4
:1052e800a00fb000cf80de00dc0607000042eb0014
:1052f800984f120029003a0054002000a40e88009c
:105308000042eb00984f120024003a00b06280007f
:10531800a00fb000cf80de00d00607000042eb00ef
:10532800984f12001d003a0054012000a40e880076
:105338000042eb00984f120018003a00b06280005b
:10534800a00fb000cf80de00c40607000042eb00cb
:10535800984f120011003a00d421ef00984f120024
:105368000e003a00b062800065004000cf80de0089
:10537800ba0607000042eb00984f120007003a00f7
:10538800ad0e8800984f120004003a00e4c52000d2
:10539800004aeb0010c0b30009003700894d7800bf
:1053a8000042eb009c4f120004003200803e2000b7
:1053b80001002000a9060700b2ff37000040eb00fb
:1053c8004f06be004f05be004f04be000000060099
:020000040000fa
:1053d800889fbe008a9fbe008c9fbe000082eb00a3
:1053e800655f8000ef8f52004e003e00faff2f00ed
:1053f800fbff29000b83610007002000c036dd0099
:105408000c0020006113b800060676008786760037
:105418008b806000610ab800c024dd00080020000d
:105428006102b80004047400858474008a0f560071
:105438008b8f5e002f003200e4be200014407800fd
:105448008082fb004240a90012003400865f800081
:10545800975f80008c0f53008d8f5b002700320010
:1054680004bf20000005eb00040037005403be0011
:105478008c0f53008d8f5b00040032000a05e80092
:10548800850f5500f9ff350002003700e10f450090
:105498001b003a00e4ff2f00e34f500021003200c8
:1054a800c22add0004bf2000050242000c8abe00ab
:1054b8000045e800e4be20000a4a78000a85fb009f
:1054c800cf68de00f4ff21000d0262000500200015
:1054d800c021dd00020020006162b80004017100f3
:1054e800858171004f4ade000a007800d903070061
:1054f800030037003a002000010037000005eb00e8
:10550800605f80000002e800645f8800cf48de002a
:105518008a027800f40020000801be00b6020700e5
:105528000002eb00040078004f06be004f05be00e5
:085538004f04be000000060054
:020000040000fa
:105540000002eb00240588002505800005c0a000ae
:1055500005d0a10005e0a1002505880034058800dc
:10556000350580000500a1006500b3003505880001
:1055700044058800450580000580a0000590a10035
:1055800005a0a00045058800450580000540a00055
:105590000550a1000560a000450588004505800074
:1055a0000500a0000510a1000520a0004505880009
:1055b00054058800f5cf2f005605800086826200d2
:1055c00005a0a00055058800550580000540a100f4
:1055d0000506b30055058800640588006505800050
:1055e00005c0a00005d0a00005e0a000650588006a
:1055f0007405880084058800c5ff2f00860580009b
:10560000868262000520a00085058800f5ff2c0039
:10561000860580008682620005e0a000850588007e
:1056200094058800a4058800f58f2f00460b200004
:10563000168b6200f5ff2c00a605800086826200b2
:1056400005e0a000a5058800b4058800b505800028
:105650000500a0000510a1000520a000b5058800e8
:10566000d405880004068800050680000530b300d4
:1056700005a0a10005068800140688001506800014
:1056800005c0a00005d0a00005e0a0001506880018
:1056900024068800340688004406880081e0a900ba
:0456a0000000060000
:020000040000fa
:1056a400889fbe00e00f5100e08f590022003d00aa
:1056b400f5c3b3008543610026002000863bdd006e
:1056c400d0429000e3c2620087c272005540980045
:1056d400c61cde00ca1add004614de00088472000f
:1056e400f5ff20008882620025409800c82ade0069
:1056f4003044900007cfb3008743640085c2730031
:1057040035409800c31add00c52ade008503780001
:10571400f703b200063bdd00c62ade00104190000c
:1057240007ceb3008743610085c27300154098001b
:105734006348730017003700f57f20000281620080
:1057440002037800f603b200250020000533dd00d3
:105754004611de009043900005ceb30085c263007d
:1057640002c1720012409800d0429000e3c262006d
:10577400554098008042eb0025409800b0439000cb
:1057840005cfb30085c2630035409800c5cfb30090
:1057940005486300d04290000510a10055409800d0
:1057a4006fc36000c043900005cfb30085c263009f
:1057b40086c2720045409800660040000181fb00eb
:1057c40084007800dfec07004f04be0000000600f0
:020000040000fa
:1057d400a4a92000144278006142620004003a0047
:1057e400a4a92000144278007042620035003200ff
:1057f40050050700a5568000a056880044a120004b
:105804000043eb00944f1300060032006022b800fe
:1058140044508800555088000000eb006050880018
:1058240000000600465080005750800005005000dc
:10583400cf80de000000430081804b004050880090
:1058440051508800b45680000402e800b456880021
:105854000040eb0085022000850f520025003a002d
:105864000002eb00b456880066508000405080006f
:1058740051508000845680009556800004025000e8
:10588400858258000603e800cfb3de00040243001b
:1058940085824b004f2bde0006024200e0824a0064
:1058a4008582d1000482d300645088004450800073
:1058b40055508000845688009556880010c0b30067
:1058c40000000600a4a9200014427800624262008d
:1058d4000040eb00804f5200060032002b06070008
:1058e40040508800515088008803070060508800a9
:0858f4000040eb00000006007b
:020000040000fa
:1058fc00889fbe0001047800e4c32000024a7800af
:10590c00f48f2f00051e2000950a6200e1e1a9002a
:10591c00e1a1a900e00f500004003d00e0e1a80067
:10592c000000ea00d061880002003700e0e1a90025
:10593c00d0618800d461800090618000cf80de004f
:10594c00cfa2de00048bb90000a9b9000603410008
:10595c000400b8008100430002e120000300200095
:10596c0092eb0700e06188008416200004c4b900a3
:10597c0088618800e0c1a900e301a800e2e1a80069
:10598c00140f80000440a1000450a0000460a1008a
:10599c00140f8800140f80000490a00004a0a00035
:1059ac00140f8800e421ef008b40a900e041a9000e
:1059bc00e4c320008042eb0094cf120008003200b8
:1059cc00e6a1ef00040f80000480a1000490a00069
:1059dc0004a0a000040f88009b40a800080037001a
:1059ec00d46180000402e900340f8800040f8000a9
:1059fc000430b30004a0a000040f88009b40a90051
:085a0c004f04be00000006007b
:020000040000fa
:105a1400881f7800581680005516800054168000a0
