:020000040802F0
:10000000F8850010FD040208674102080530020867
:100010004F410208E72F0208734102080000000068
:10002000000000000000000000000000B50302080E
:10003000FF2F0208000000006D040208D10402082E
:100040001705020817050208170502081705020818
:100050001705020817050208170502081705020808
:1000600017050208170502081705020817050208F8
:1000700017050208170502081705020817050208E8
:1000800017050208170502086DF50408BDF70408F6
:10009000B1F7040817050208B7F7040817050208A6
:1000A00051090508170502089D09050817050208EA
:1000B00017050208170502081705020817050208A8
:1000C000170502081705020817050208A905050803
:1000D000AF050508170502081705020817050208ED
:1000E000450005086D4102081705020817050208BA
:1000F00017050208150A0508170502081705020862
:10010000170502081705020817050208B5050508B6
:100110001705020817050208C5090508ED090508B5
:100120001705020817050208170502081705020837
:1001300017050208DDFE040817050208CFF70408BA
:10014000C3F7040817050208C9F7040817050208D1
:100150001705020817050208170502081705020807
:1001600017050208170502081705020817050208F7
:1001700017050208170502081705020817050208E7
:10018000170502081705020800F002F800F02DF824
:100190000AA090E8000C82448344AAF10107DA45E2
:1001A00001D100F022F8AFF2090EBAE80F0013F007
:1001B000010F18BFFB1A43F001031847648D0400B8
:1001C000948D04000023002400250026103A28BF47
:1001D00078C1FBD8520728BF30C148BF0B607047B9
:1001E00010B5002002F044FE10BD02F086FE11465C
:1001F00000F08FF828F064FC02F0A4FE704770470E
:100200000202034CE7A7AA02000002080000060051
:1002100000000020C0FF01000000000000000000FE
:100220000761454D533030616C6C000000000000E8
:1002300001000100010000004558540000000000CA
:100240004F637420323520323032332030383A3424
:10025000313A3131000000000000000000000000D1
:10026000000000000000000000000000000000008E
:10027000000000000000000000000000000000007E
:100280000A444FF0000C10F8013B13F0070408BFBC
:1002900010F8014B1D1108BF10F8015B641E05D05A
:1002A00010F8016B641E01F8016BF9D113F0080F0F
:1002B0001EBF10F8014BAD1C0C1B09D16D1E58BFA1
:1002C00001F801CBFAD505E014F8016B01F8016BD8
:1002D0006D1EF9D59142D6D3704766293EF0E3836F
:1002E00003681B0A28BF41F08001642901F07A826B
:1002F000752901F07782782901F01683E42901F04D
:10030000AD82F82901F01E83732902F08E8200204D
:1003100070471FB53EF071FB9DE8030001F01FFF21
:1003200002F0F4FA0400002000213DF0CDFF401C53
:100330006060002000213DF0B1FFE0601FBD03B40C
:10034000FFF74EFF03BC01F0E9FE000080F30988CF
:100350007047EFF309807047684680F309880448C6
:100360000078C00714BF0220032080F31488704770
:10037000D4030010DFF818C0EFF305831B0618BF85
:100380006047EFF31483DB0708BF604700DF704767
:100390007DAC0508DFF818C0EFF305831B0618BF16
:1003A0006047EFF31483DB0708BF604700DF704747
:1003B000F5AC0508EFF30980816911F8021CE1BB77
:1003C00090E80F1010B5E047BDE81040EFF3098C3E
:1003D0008CE80700214B93E80600914208BF704764
:1003E00041B91EF0100F16D11D49086820F0010018
:1003F000086010E01EF0100F06BF2CED108A0120DF
:10040000002081F838002CE9F00FC1F83CC00CB492
:100410003CF03CF90CBC1A60D2F83CC0BCE8F00FD0
:1004200092F8380000280EBF6FF0020E6FF0120E27
:10043000BCEC108A8CF30988704710B5094A126821
:10044000914209D8084C54F8214090E80F10A04779
:10045000EFF3098C8CE80F0010BD0000480300107A
:1004600034EF00E0D0F40408D0F4040810B53CF0F8
:1004700007F8BDE81040154B93E80600914208BF0D
:100480007047EFF3098C1EF0100F06BF2CED108A99
:100490000120002081F838002CE9F00FC1F83CC0A1
:1004A0000CB43CF0F3F80CBC1A60D2F83CC0BCE8C9
:1004B000F00F92F8380000280EBF6FF0020E6FF0B8
:1004C000120EBCEC108A8CF30988704748030010A8
:1004D00010B53CF0FFF8CCE710B539F0CDF93CF0A1
:1004E000F9F8C6E700487047003000000048704740
:1004F00000FC0100401EFDD1704700000948804704
:1005000009480047FEE7FEE7FEE7FEE7FEE7FEE7F5
:10051000FEE7FEE7FEE7FEE704480549054A064B0D
:1005200070470000A90805088901020800000020A2
:10053000F885001000FC0120F855001010B582B0BD
:100540000C4644F28C51C1F200010978019099B136
:10055000002C18BF012400F043FB01A8214630F015
:100560002BFF044600F04CFBE0B2013818BF4FF0FF
:10057000FF3040B202B010BDFF2040B202B010BD4B
:10058000B0B582B00D4644F28C51C1F20001097839
:10059000019039B31446002D18BF012500F020FB4F
:1005A00001A8294630F008FF012C04460FD101981C
:1005B00042F29061C1F20001C1F82A0051F8045BD7
:1005C0004022281D01F019FC284600F02BFE00F007
:1005D00017FBE0B2013818BF4FF0FF3040B202B055
:1005E000B0BD00BFFF2040B202B0B0BD70B582B058
:1005F0000E4644F28C51C1F20001097801904FF08F
:10060000FF0001B342F2DE65C1F200052988D1B1D5
:1006100000F0E6FA288898B144F284220021C1F261
:10062000000200BFCBB2C3EBC30302EB4305D5F816
:100630000A30019CA34209D00131CBB29842F1D8D3
:1006400000F0DEFAFF2040B202B070BD00F0D8FA30
:100650001EB12889B08068683060002040B202B0C6
:1006600070BD00BF10B582B044F28C51C1F20001E0
:100670000978019000294FF0FF0120D042F2DE649A
:10068000C1F200042088D0B100F0AAFA208898B105
:1006900044F2842C0021C1F2000C00BFCBB2C3EBAA
:1006A000C3030CEB4303D3F80A40019A944209D0E8
:1006B0000131CBB29842F1D800F0A2FAFF2148B242
:1006C00002B010BD1C1D00F09BFA41F6DE11C0F611
:1006D00006012046062201F045FB78B141F6D8110B
:1006E000C0F606012046062201F03CFB002100284E
:1006F00008BF4FF0FF3148B202B010BDFF2148B231
:1007000002B010BD002070470020704710B542F2C3
:100710009060C1F200004FF0FF310181416044F26E
:10072000B041C1F200010A698C69898A40F2086C03
:10073000C181C183002140F2080EC0E90841C0E92F
:100740000A11C0E90C11C0E90E11016445F2020161
:10075000C0F2001CC0F2064E4FF48073C1F20001DB
:10076000C0F80A20C0E904CE0383C0F81A20016053
:100770002A2200200A6010BD80B590F820102029A0
:1007800002D9FF2040B280BD00F000FD002040B241
:1007900080BD000070B5C8B105460C46FFF7B2FF3A
:1007A0000646284600F0AEFC0644284600F07CFAD7
:1007B0000644284600F0F4FA0644284600F084FC7B
:1007C0003044002C18BF206070BD00BF44F2B04020
:1007D000C1F20000026F3AB148F6E821C0F6060106
:1007E000E1209047002070BDFEE700BF44F2B04218
:1007F000C1F20002126F0AB1104700BFFEE700BF4E
:1008000070B578B10446026F007844F2B046C1F288
:100810000006326790B11AB14BA1E42045E000BF59
:10082000FEE700BF44F2B040C1F20000026F1AB10F
:100830005CA1E12039E000BFFEE700BF44F28C502C
:10084000C1F200000078012806D11AB14BA1E020C6
:100850002BE000BFFEE700BF20460D46FFF78CFFF0
:10086000E0B944F2B040C1F20000D82101F0EDFB44
:1008700044F28850C1F2000000210160204600F0DF
:1008800073FC58B9204600F015FA38B9204600F03C
:100890008DFA18B9204600F01DFC68B1326F4AB1DC
:1008A00048F60F31C0F60601E3209047FF2040B222
:1008B00070BD00BFFEE700BF20462946FFF724FFBA
:1008C0000028F3D12046FFF71DFF20F00300054468
:1008D0002046294600F018FC0028E7D1204600F009
:1008E00011FC20F0030005442046294600F0DEF903
:1008F0000028DBD1204600F0D7F920F003000544A2
:100900002046294600F04EFA0028CFD1204600F0BC
:1009100047FA20F003002918204600F0D7FB0028F2
:10092000C4D1204600F0D0FB44F2B040C1F2000038
:100930002146D82201F0E8FA00F046F8002818BF56
:100940004FF0FF3040B270BD6970616C5F626173DF
:10095000655F696E697469616C69736528293A20FD
:10096000756E737570706F72746564207463702F28
:10097000697020737461636B000000006970616CC2
:100980005F626173655F696E697469616C697365E3
:1009900028293A20616C72656164792073746172F0
:1009A000746564006970616C5F626173655F696E34
:1009B000697469616C69736528293A206D6973737C
:1009C000696E67206366670010B544F2B044C1F2F7
:1009D00000042046FFF79AFE10B1FF2040B210BD80
:1009E000616FD9B1A06F002846D0E06F002843D0D6
:1009F000D4F8800000283FD0884744F28851C1F2E3
:100A000000010860A0B9226F32B148F67C31C0F60F
:100A10000601E02090470BE0FEE700BF44F288515A
:100A20000020C1F20001C4E91E00C4F88000086083
:100A300044F2B040C1F2000000F068FB0028CCD1C5
:100A400044F2B040C1F2000000F032F90028C4D1F5
:100A500044F2B040C1F2000000F0A6F90028BCD179
:100A600044F2B040C1F2000000F032FB002818BF91
:100A70004FF0FF3040B210BD226F4AB148F65031FE
:100A8000C0F60601E3209047FF2040B210BD00BF32
:100A9000FEE700BF70B5C8B105460C46FFF732FE51
:100AA0000646284600F02EFB0644284600F0FCF8D7
:100AB0000644284600F074F90644284600F004FB7A
:100AC0003044002C18BF206070BD00BF44F2B0401D
:100AD000C1F20000026F3AB148F6E821C0F6060103
:100AE000E1209047002070BDFEE700BFFFF788BE01
:100AF000002070470020704710B5416F41B3816FEF
:100B0000A1B1C16F91B1D0F8800078B144F2B04486
:100B1000C1F20004616F31B1884744F28851C1F2DB
:100B20000001086000B3002148B210BD44F2B0409B
:100B3000C1F20000026F4AB148F65031C0F606011A
:100B4000E3209047FF2148B210BD00BFFEE700BF81
:100B50000021C0E91E11C0F8801044F28850C1F293
:100B60000000016048B210BD226F4AB148F67C31E6
:100B7000C0F60601E0209047002148B210BD00BF3A
:100B8000FEE700BF10B544F2B044C1F20004606F4C
:100B9000A0B1804744F28851C1F2000100280860EA
:100BA00018BF10BD226F3AB148F67C31C0F606017D
:100BB000E020BDE810401047FEE700BF10BD00BFB9
:100BC00080B544F2B040C1F20000D82101F03DFAF6
:100BD00044F28851C1F20001002200200A6080BD69
:100BE00044F28850C1F200000068002808BF704736
:100BF00044F2B041C1F200018A6FD1F88010104771
:100C000044F28850C1F200000068002808BF704715
:100C100044F2B041C1F20001C96F08470068704753
:100C200010B582B044F28C51C1F200010978FF2462
:100C30000190A9B144F2B041C1F2000191F82C1029
:100C400071B1C0B2EF280BD1FFF7CAFF01A837F08E
:100C5000CDF90024002808BF4FF0FF34FFF7D0FF84
:100C600060B202B010BD00BF10B582B044F28C512A
:100C7000C1F200010978FF24019091B144F2B04023
:100C8000C1F2000090F82C0058B1FFF7A9FF01A8AD
:100C900037F0D4F90024002808BF4FF0FF34FFF7E5
:100CA000AFFF60B202B010BD002070470020704757
:100CB0000020704780B590F82D10062902D9FF203A
:100CC00040B280BD00F0ECFA002040B280BD0000D0
:100CD00080B544F2B040C1F20000406870B144F207
:100CE0008C50C1F20000017801290FD10BA1E02046
:100CF000FFF77CFDFF2040B280BD00BF11A1E120C5
:100D0000FFF774FDFF2040B280BD00BF01210170DC
:100D100037F048FC002040B280BD00BF6970616CB4
:100D20005F7379735F737461727428293A20636109
:100D30006E6E6F7420737461727420616761696E86
:100D4000000000006970616C5F7379735F73746198
:100D5000727428293A206D697373696E6720636F16
:100D60006E66696775726174696F6E0080B5FFF7B2
:100D700037FF37F033FEBDE88040FFF741BF00BFCB
:100D800080B5FFF72DFF3DF065F9BDE88040FFF726
:100D900037BF00BF44F2B040C1F200004068704766
:100DA00000207047002070470020704710B501896F
:100DB000B1F5C05F02D9FF2460B210BD44F28C517E
:100DC000C1F2000100240C7000F0D4FA60B210BD32
:100DD00010B544F28C51C1F20001097881B31021A1
:100DE00001EA4001082241EA401102EA500211449E
:100DF000042202EAD0000C18FFF7F2FE40F645622A
:100E0000E0B2C0F6020201213DF048F94FF00004C3
:100E100088B145F2480200EB4001C1F2000202EB4A
:100E2000C10101F8180DC1E903444C61C1F8064045
:100E3000C1F802400C46FFF7E3FE204610BD00BF9C
:100E4000002010BDF0B583B01446C21F12F1060F8A
:100E500022D3013845F2480200EB4000C1F2000203
:100E600002EBC006374657F8100FA8B108461D46DA
:100E7000FFF7D4FEF168034621B18B420CD13089D3
:100E8000A04209D108993F687069ADF8041001AA21
:100E9000314602950094B847002003B0F0BD00BF72
:100EA000F0B581B060B30446007848B3FFF798FE10
:100EB000264636F8020F20B120783DF0D1F8002008
:100EC000608020783DF04CF92178054601EB410027
:100ED00045F24801C1F2000101EBC000002700F813
:100EE000187C2770C4E90377676177603760FFF784
:100EF00087FE002D08BF4FF0FF3778B201B0F0BD7C
:100F0000FF2778B201B0F0BDF0B581B0D0B3144680
:100F10004FF0FF0792B30546007878B30E46FFF70F
:100F20005FFE688820B128783DF09AF8002068803C
:100F300045F24800C1F200004188FF27A1421BD0C2
:100F4000418BA14218D0418EA14215D0B0F84A1071
:100F5000A14211D0B0F86210A1420DD0B0F87A00D1
:100F6000A04209D0287821463DF0BCF800060FBF0A
:100F7000FF276C806E600027FFF742FE78B201B059
:100F8000F0BD00BFFF2778B201B0F0BD70B5B8B1B9
:100F900005460078A0B114460E46FFF721FE68888A
:100FA00030B9284600212246FFF7AEFF01300BD0B2
:100FB0002C810024EE60FFF723FE60B270BD00BFFD
:100FC000FF2460B270BD00BFFF24FFF719FE60B2BE
:100FD00070BD00BFB0B558B10446007840B1FFF70E
:100FE000FFFD00252581E560FFF70AFE68B2B0BD70
:100FF000FF2568B2B0BD00BFB0B5A8B104464088B7
:1010000090B1E06880B1208970B10D46FFF7E8FD2E
:10101000E26823892046294600F00AF80446FFF7D3
:10102000EFFD2046B0BD00BF4FF0FF30B0BD00BFA8
:10103000F0B583B0029258B30646007840B30D462F
:101040004FF0FF0701B37088F0B1686800B32888DB
:10105000F0B11C46FFF7C4FD28883DF017F8D8B161
:1010600069682A88074600F0C8FE30782E8802A9F1
:1010700022463B4600963DF08BF80027002808BF2B
:101080004FF0FF37FFF7BCFD78B203B0F0BD00BFF3
:10109000FF2778B203B0F0BDFFF7B2FDFF2778B2AB
:1010A00003B0F0BD70B5054600284FF0FF0009D031
:1010B0000E4639B11446FFF793FDC5E90464FFF706
:1010C0009FFD002040B270BD002070470020704797
:1010D0000020704710B5044690F83000062803D968
:1010E000FF2040B210BD00BF45F24800C1F2000031
:1010F000902100F0AAFF204600F08CF9002040B2B9
:1011000010BD0000002070470020704780B5D0F867
:101110008C1059B1D0F8901041B1D0F8941029B189
:10112000D0F8980010B1002040B280BD03A1E120AA
:10113000FFF75CFBFF2040B280BD00BF6970616CAF
:101140005F6574685F6869645F696E697428293ACD
:10115000206D697373696E67206574682066756EAB
:101160006374696F6E73000080B500F083F800202F
:1011700080BD000044F2B040C1F2000090F82200AF
:1011800001280CBF0020704730F038BA10B5044673
:1011900044F28420C1F200004FF4E07100F055FFEA
:1011A000D4E909014DF68362C4F21B32A0FB0203AD
:1011B000A1FB020142F2D86294F82000C1F20002C1
:1011C00094F82140D080980C1081890C0020147074
:1011D000517010BD00291CBF0020704730F06CBA60
:1011E00080B584B04FF6A030C0F60500006844F228
:1011F000B041009042F68C30C1F20001C0F606000A
:101200008A7A019044F2D150C1F200008DF800209A
:1012100082880068D1F88C10029068460392884753
:1012200004B080BD44F2B041C1F20001D1F8981081
:10123000084700BF10B544F2B044C1F20004D4F82E
:1012400090008047D4F88800002808BF10BDBDE892
:101250001040004710B544F2B044C1F20004D4F885
:101260008400002818BF8047D4F89400BDE81040DF
:10127000004700BF818A44F2D152C1F2000291803E
:10128000016900201160704744F2B041C1F20001D1
:1012900091F82C10012918BF704739F0FDBB00BF31
:1012A000B0B542F2D865C1F20005044605F1280048
:1012B000242100F0CAFE606844F24021C0F20F0110
:1012C000B1FBF0F04CF6CD4180B294F82D204843AC
:1012D000810C00206A81A970B0BD00BF05280BD821
:1012E00048F65561A0F11002C0F6060101EB40116D
:1012F000D0B2FFF77BBA00BF01A1E020FFF776BABA
:10130000756E6B6E6F776E2073797374656D206583
:1013100072726F720000000010B537F073F944F27A
:10132000B044C1F2000494F82C00012808BF37F043
:101330007BF994F82F00012808BF37F09DF994F845
:101340002200012818BF10BD0020BDE8104030F079
:1013500055B900BF80B53BF039FA44F2B040C1F254
:10136000000090F82C00012818BF80BDBDE8804027
:101370003BF084BAB0B544F29055C1F20005044682
:1013800028463C2100F061FE42F22470C1F20000C8
:101390004FF4C05100F059FE42F2D861C1F2000191
:1013A0000022C1E90822D4E9060328604AF6C000F9
:1013B000A881A88047F26900AB604CF2FE03C6F634
:1013C0006140A5F80F30A823886146F264506B7421
:1013D000FE23C0F27600EB74C8612089EB710861CE
:1013E000606844F24025C0F20F05B5FBF0F0012320
:1013F00088810020CB70CA81B0BD00BF44F2B041EB
:10140000C1F2000191F82F10012918BF704739F07F
:1014100083BB00BF10B5044645F2B050C1F20000D6
:10142000482100F012FE94F8301042F2D862C1F266
:1014300000020020117110BD44F2B040C1F2000062
:10144000D0F89C00002808BF70470047004870474C
:101450003026001070B5A0FB0140B4F1805170F14E
:10146000000024BF002070BD204600F0F0FE050003
:101470001CBF214600F0C7FD284670BD70B516465A
:101480000D46041F002808BF70BD002E1CBF05F1CB
:101490000C00AFF300802B465868002818BFA0420C
:1014A00038BF0346F8D31968CA18A24218BF5C6057
:1014B00003D122681C461144196021680A1982422E
:1014C00018BF606004D14268626000680844206010
:1014D000002E1CBF05F10C00AFF3008070BD10B5ED
:1014E000044600F021FE01682046BDE810400122BC
:1014F000C4E70844401E491E884370470821001D68
:10150000F7E72DE9F0410F468046041F00F00CFE7E
:10151000066807B3B8F1000F384622D0FFF7EEFF98
:10152000B84205463CBF0020BDE8F08106F10C0042
:10153000AFF300802268AA4238BF314615D3511B51
:10154000082931D36019002240F8041B3146256078
:10155000FFF794FF28E04046FFF7C1FF0020BDE8F9
:10156000F081BDE8F04100F072BE4868002818BF65
:10157000A04238BF0146F8D3131983421BD1036838
:101580001A44954217D8531B082B0AD34368621993
:101590005360236800681844401B106025604A604F
:1015A00002E022604068486006F10C00AFF3008062
:1015B000201DBDE8F08100223146384600F006FECD
:1015C00005000AD041462068021F284600F09CFC16
:1015D00000223146201DFFF751FF06F10C00AFF34A
:1015E00000802846BDE8F08153EA020C00F06980D3
:1015F0002DE9F04B4FF00006002B1FBFB3FA83F527
:1016000003FA05F424FA05F65E4012BF1643B2FA57
:1016100082F502FA05F4C5F120051EBF22FA05FC89
:1016200044EA0C04203556EA044C4FEA144418BF2F
:10163000641C4FF000084FF00009904271EB030C5E
:1016400039D3002919BFB1FA81F701FA07F6B0FAC8
:1016500080F700FA07F6C7F120071EBF20FA07FC43
:1016600046EA0C062037B6FBF4FCA7EB0507103F53
:1016700007F01F0BCBF120062CFA06F60CFA0BFB39
:1016800044BFB3460026202FA4BF5E464FF0000B98
:101690005BEA060C08BF4FF0010B19EB0B0948EB96
:1016A0000608ABFB027C06FB02CC0BFB03CCC01B89
:1016B00071EB0C01C1E70B46024641464846BDE8C6
:1016C000F08B13B5084318BF4FF0FF300146AFF35E
:1016D0000080BDE81C4070470FB41CB5084B06AA3B
:1016E0007B4469460090059801F06DF8044600209F
:1016F000694601F07BF820461CBC5DF814FB000035
:10170000091100000FB41CB50C0007AA009007D007
:101710004142A14202D32044401E01E04FF0FF307D
:10172000074B7B4469460190069801F04CF8002174
:10173000002C01D0009A11701CBC5DF814FB000055
:10174000D110000070B5044685690068C10601D556
:10175000302600E02026C00707D070BDD4E9012163
:1017600030469047206A401C20626D1EF6D570BD41
:1017700070B5044685690078C00707D170BDD4E90B
:10178000012120209047206A401C20626D1EF6D562
:1017900070BD70B50C460546012A05D02878800634
:1017A00000D5EA69002302E0012305E05B1C9342B7
:1017B00002D2E05C0028F9D1A869E618C01AA86135
:1017C000286A184428622846FFF7BCFF04E0D5E9E0
:1017D000012114F8010B9047B442F8D32846FFF7D3
:1017E000C7FF70BD2DE9F041064600241068752939
:1017F000314616A510D0AFF30080002802DA40422F
:1018000013A507E031688A0701D512A502E0490750
:1018100004D511A5012401E0AFF3008000210A22C4
:1018200006F1240709E0B0FBF2FCB0FBF2F302FB87
:101830001C00303078541846491C0028F3D1234648
:101840002A463046BDE8F04100F050BD00000000DF
:101850002D0000002B000000200000002DE9F041C9
:101860008046D21D22F007020025D2E90002F529A8
:1018700015A614D0011E72F1000106DA0023D0EB88
:10188000030063EB020211A608E0D8F800108B07F2
:1018900001D50FA602E0490701D50EA60125114684
:1018A000002408F1240704E000F0DBFC30323A5554
:1018B000641C50EA0102F7D12B46324621464046CD
:1018C000BDE8F04100F012BD000000002D00000056
:1018D0002B00000020000000F0B40D46018809052F
:1018E00002D51B4C7C4402E0194C7C440E34002190
:1018F00000F1240608E002F00F071209E75D42EA52
:1019000003721B097754491C52EA0307F3D122469C
:1019100004780023240704D5702D02D009B10223D6
:101920001132F0BC00F0E2BC70B504460D46214611
:101930001068AFF30080024629462046BDE870409B
:101940000023C9E7D21D22F00703D3E90023C3E730
:10195000B2D903002DE9F05F894604464FF0000A32
:10196000DFF874B1FB44C0F820A02046E168884746
:10197000002874D0252806D0D4E901219047206A98
:10198000401C2062F1E700265F462046E168884758
:101990002028054607DB312D05D2781910F8200CD8
:1019A00008B10643F1E7B00701D526F00406C4F8F4
:1019B0001CA00027C4F818A02A2D09D028462FF013
:1019C0007EFB38B304EB8708303DC8F8185019E0A7
:1019D00059F8041B204604EB87029161E1688847AF
:1019E000012F054618D1E069002820DA26F02006EC
:1019F0001DE0D8F8180000EB800005EB40003038FF
:101A0000C8F818002046E168884705462FF057FBC4
:101A10000028EED1012F0AD02E2D08D12046E168F2
:101A200088477F1C0546022F46F02006C4DBA069CC
:101A3000002803DA404246F00106A061F00701D019
:101A400026F010066C2D0BD0682D09D04C2D39D006
:101A50006A2D35D0742D35D07A2D33D016E038E08C
:101A6000E1682F4620468847B842054609D16C2FC9
:101A700026D04FF48060E16806432046884705463B
:101A800004E06C2F1AD04FF4807006430DB3A5F11B
:101A90004100192802D8203546F400664A462946F6
:101AA000204626604E46FEF718FC80B101280BD078
:101AB000F61D26F0070000F1080956E74020E4E78C
:101AC0008020D8E70020D6E706F104094DE7284634
:101AD00052E7206ABDE8F09F5AD903000FB400B561
:101AE0008DB010A9099000910B904FF0FF300A9033
:101AF00000200C90064878440690064878446A46D0
:101B000007900F9909A800F0A9FE0DB05DF814FB2D
:101B1000830D00009B0D00002DE9FF5F1D464FF077
:101B2000FF3B91464FF000085F46D5E90146A969A1
:101B300001987F1C8847296A824688470028F6D189
:101B4000BAF1FF3F0CD0002E24F4C06419DD60060A
:101B500014D5BAF12B0F09D0BAF12D0F0ED103E035
:101B6000584604B0BDE8F09F44F48064A969019828
:101B70007F1C8847761E8246002E02DDBAF1300FA8
:101B800003D0B9F1000F26D032E0A969761E019882
:101B90007F1C44F400748847002E824605DDBAF1AC
:101BA000780F06D0BAF1580F03D0B9F1000F10D05A
:101BB0001EE0B9F1000F02D0B9F1100F18D1A969D8
:101BC000761E01987F1C24F40074884782461020FA
:101BD00002E0082000E00A20814609E0A96908FB2C
:101BE0000908761E01987F1C44F4007488478246D9
:101BF000002E05DD4946504600F01BFE0028EDDAB8
:101C0000E96901988847A00502D46FF00100A8E7B0
:101C1000E00725D1600613D5600502D5C8F10000A4
:101C200000E0404629680A1D2A600968220501D59E
:101C3000087015E0220701D5088011E008600FE068
:101C40002868011D29600068210502D580F8008000
:101C500006E0210702D5A0F8008001E0C0F800806E
:101C600038467EE72DE9FF5F4FF00008994614469D
:101C700046469169D2E901A7DDF838B00198884756
:101C8000054659EA0B0005D009E0A1690198761CC8
:101C900088470546216A284688470028F5D1681CF0
:101CA00003D05FEACA7005D015E04FF0FF3004B0F2
:101CB000BDE8F09F2068011D2160D0F800800AE097
:101CC0005FEACA7001D108F8015BA169761C01982E
:101CD0007F1E88470546002F1ADD681C18D0B9F111
:101CE000000F0DD0E81705EBD060421120F01F0067
:101CF00059F822102A1A012090400142E0D107E051
:101D0000BBF1000FDCD12846216A88470028D7D0D4
:101D1000E16901988847BBF1000F07D1002E05DD6E
:101D20005FEACA7002D1002188F80010A068B842AA
:101D300003DDBBF1000F03D017B16FF00100B6E770
:101D40003046B4E710B5002000F0CFFDFEF748FAAA
:101D5000BDE81040012000F0E1B90B4601461846ED
:101D600000F0ACBD40EA010310B59B070FD1042A77
:101D70000DD310C808C9121F9C42F8D020BA19BA56
:101D8000884201D9012010BD4FF0FF3010BD1AB1BB
:101D9000D30703D0521C07E0002010BD10F8013B10
:101DA00011F8014B1B1B07D110F8013B11F8014B37
:101DB0001B1B01D1921EF1D1184610BD10B5431C5A
:101DC00002E010F8011B71B18107FAD14FF0013226
:101DD00002C88C1A8C4314EAC211F9D0C01A0A0640
:101DE00003D0C01E10BDC01A10BD0A0401D0801E51
:101DF00010BD0902FCD0401E10BD032A40F2308005
:101E000010F0030C00F0158011F8013BBCF1020F3B
:101E1000624498BF11F801CB00F8013B38BF11F8BC
:101E2000013BA2F1040298BF00F801CB38BF00F8D3
:101E3000013B11F0030300F06780083AC0F008800E
:101E400051F8043B083A51F804CBA0E80810F5E734
:101E5000121D5CBF51F8043B40F8043BAFF3008017
:101E6000D20724BF11F8013B11F801CB48BF11F88C
:101E7000012B24BF00F8013B00F801CB48BF00F85C
:101E8000012B7047431A28BF9A427FF6B6AF104421
:101E90001144032A40F2268010F0030F1EBF11F8F0
:101EA000013D521E00F8013D10F0030F7FF4F6AF24
:101EB00011F0030300F06D80083AC0F00B8051F878
:101EC000043D083A51F804CD40F8043D40F804CDF3
:101ED000FFF7F3BF121D5CBF51F8043D40F8043D0D
:101EE000AFF30080D20724BF11F8013D11F801CDF6
:101EF00048BF11F8012C24BF00F8013D00F801CDC6
:101F000048BF00F8012C704710B5203AC0F00B8094
:101F1000B1E81850A0E81850B1E81850A0E81850DF
:101F2000203ABFF4F5AF5FEA027C24BFB1E8185055
:101F3000A0E8185044BF18C918C0BDE810405FEAB7
:101F4000827C24BF51F8043B40F8043B08BF704733
:101F5000D20728BF31F8023B48BF11F8012B28BF38
:101F600020F8023B48BF00F8012B7047431A28BFF6
:101F70009A427FF6C9AF1044114410F0030F1EBF00
:101F800011F8013D521E00F8013D10F0030F7FF4DF
:101F9000F6AF103AC0F00A8010B531E9185020E9C8
:101FA0001850103ABFF4F9AFBDE81040530724BFF2
:101FB00031E9081020E9081044BF51F8043D40F809
:101FC000043D12F0030F08BF7047D20728BF31F855
:101FD000023D48BF11F8012C28BF20F8023D48BF40
:101FE00000F8012C704702F0FF0343EA032242EAA3
:101FF000024200F00AB802F0FF0343EA032242EA79
:10200000024200F024B84FF000020429C0F0128010
:1020100010F0030C00F01B80CCF1040CBCF1020F9B
:1020200018BF00F8012BA8BF20F8022BA1EB0C0170
:1020300000F00DB85FEAC17C24BF00F8012B00F866
:10204000012B48BF00F8012B70474FF0000200B58C
:10205000134694469646203922BFA0E80C50A0E8CB
:102060000C50B1F12001BFF4F7AF090728BFA0E879
:102070000C5048BF0CC05DF804EB890028BF40F845
:10208000042B08BF704748BF20F8022B11F0804F87
:1020900018BF00F8012B704730B44FF0013C50F8E6
:1020A000042B51F8043BCCFA52F4D51A20D1FCB9D8
:1020B00050F8042B51F8043BCCFA52F4D51A17D13E
:1020C000B4B950F8042B51F8043BCCFA52F4D51AA9
:1020D0000ED16CB950F8042B51F8043BCCFA52F4F1
:1020E000D51A05D1002CDAD030BC4FF00000704773
:1020F00029BAB1FA81F111F01801D1F12000844020
:10210000F2D1CA40CB4012F0FF0213F0FF0330BC03
:10211000D01A704770477047704700000149182077
:10212000ABBEFEE72600020010B5FFF78FF90830BE
:1021300010BD7047704738B504460A46002069460E
:10214000AFF30080002808BF38BD02460099204642
:1021500000F0F6FB012038BD012000F0C7BEF8B545
:10216000AFF30080054600200C46102000BF064655
:10217000A819A0420DD9324669460020AFF300806D
:10218000070008BF00F0B2FE0098A04218BF054645
:10219000C419FFF7C9FF05600746F01D20F00700CE
:1021A0004619284600F0BCFBB44208BFF8BDA21B8C
:1021B00031463868BDE8F84000F0C2BB0844401E14
:1021C000491E884370470821001DF7E72DE9F041BB
:1021D00017460E460446FFF7F6FFA042054633D9E0
:1021E000002F1CBF06F10C00AFF30080304674686E
:1021F000F4B12168A94217D305F1080291423CBF0E
:102200006168416007D3626861194A602268521BA5
:102210000A6041602560002F1CBF06F10C00AFF37F
:102220000080201DBDE8F08120466468002CE0D1CC
:1022300029463046FFF77FFF0028D7D1002F1CBF6B
:1022400006F10C00AFF300800020BDE8F08110B56E
:102250000446FFF769FF01682046BDE810400122EF
:10226000B4E730B5B0F10A0271F100034FEA900E05
:102270004EEA817EB0EB0E0061EB91014FEA101E39
:102280004EEA017E10EB0E0041EB11114FEA102EC9
:102290004EEA016E10EB0E0041EB11214FEA104E99
:1022A0004EEA014E10EB0E0041EB1141401841F196
:1022B00000014FEAD00040EA41704FEAD1014FEAF5
:1022C000810444EA907410EB800544EB01046D191D
:1022D00044EB0404521BA3414FF0000348BF0A32F1
:1022E00000D530BD401C41F1000130BD2DE9F04763
:1022F0000D4699469246044600F124080168880676
:1023000004D5E06921F01001216000E00120A8421D
:1023100001DD471B00E00027A1697A1902EB0900E3
:10232000081AA0612078C00602D42046FFF70AFAF6
:10233000002608E0D4E901211AF806009047206A37
:10234000401C761C20624E45F4DB2078C0060AD57E
:102350002046FFF7F7F906E0D4E901213020904745
:10236000206A401C2062381EA7F10107F4DC07E058
:10237000D4E9012118F805009047206A401C20622A
:10238000281EA5F10105F3DC2046FFF7F1F92078BE
:10239000000602D50220BDE8F0870120FBE72DE909
:1023A000FF4F0C461E464FF0FF378BB0D2E90001BD
:1023B000DDF860800A908A46C1F30A5505B93D46AA
:1023C000002108464FF00000BAF1000F00F4400071
:1023D00005DA00EB80004FF4400101EA50004FEABB
:1023E0009059B9F1010F00DDB9460A9850EA4A0048
:1023F0000ED044F61050A5F2FF3545432F14B8F126
:10240000000F1ED07542291E1EDDC9F100021CE01E
:10241000B8F1010F4FF0000001D0302103E0F2438A
:1024200005E02154401CB042FBDB30460022002175
:1024300021540B99C1F80880C1E900200FB0BDE814
:10244000F08FBD1B6D1CDEE74A4600DA694206A824
:1024500000F09CFC06AB93E8070003AB83E80700A1
:1024600050460A992CF06CFC8DE80700A0F500504E
:102470001F3800900398002D0ADD42F21F014A46E2
:102480000844002303A9039068462CF0D5FE09E018
:10249000A0F500504A461F38002303A90390684660
:1024A0002CF0DFFE8DE807000004000C03D04FF095
:1024B000FF30410800E01046B8F1000F03D00022C1
:1024C000009215461EE0751E05D4FFF7CAFE303295
:1024D00062556D1EF9D5B3460122084302D0002291
:1024E0007F1C04E02078302801D100227F1E002AC2
:1024F000099784D01DE0112D07DAFFF7B2FE3032C4
:1025000062556D1C50EA0102F5D1084302D00098D3
:10251000C8B10EE00021681E05E0235C625C6354D4
:102520002254401E491C8142F7DBAB46A81B401ECB
:102530000990002004F80B000B98099AC0F8088055
:10254000C0E9002B7AE711264FF0000857E72DE984
:10255000F04F88460446D21D22F0070191B0D1E920
:102560000001CDE90A012EF06EFD02460B98C00F66
:1025700001D02D2007E02068810701D52B2002E043
:10258000202101EAC000032A099001D0072A05DBB7
:1025900003464146204600F0FFF90BE12078800613
:1025A00001D5E06900E00620B8F1650F814606D04C
:1025B000B8F1660F18D0B8F1670F70D131E0002084
:1025C000B9F1110F009001DB112301E009F10103C2
:1025D0000AAA01A90CA8FFF7E2FEDDE90C700026AB
:1025E00009F10105834647E001204B4600904FF07A
:1025F00000470AAA01A90CA8FFF7D1FEDDE90DB03A
:102600000C995D46002610B909F101000D18B9EBCF
:10261000050003D4C0F1FF3609F10105A5EB09005F
:102620002BE0B9F1010F01DA4FF001090020B9F1F7
:10263000110F0090484601DD112300E003460AAA6D
:1026400001A90CA8FFF7ABFEDDE90C704D46002692
:102650008346207800070AD4AB4500DA5D4601A81E
:10266000012D04DD411911F8011C302907D04F4517
:1026700002DA17F1040F04DA012082460FE06D1E22
:10268000EEE7002F02DCED1B3E4403E0781CA8427D
:1026900000DD7D1CB81B00F1010A4FF000472078D7
:1026A000000703D4AA4501DB4FF0FF3A0021B7F140
:1026B000004F0DF143088DF8431024D002202B2346
:1026C000002F01DA7F422D230A21021EA0F1010012
:1026D00000DC5FB197FBF1FC97FBF1F201FB1C7C86
:1026E00017460CF1300C08F801CDEEE7A8F1010017
:1026F00003702188090501D5452100E06521A0F17D
:10270000010800F8011C09980FA9A1EB0807FF1D9B
:1027100000B10120411901EBEA70A1693844081A9F
:10272000401EA0612078C00602D42046FFF70AF8B8
:10273000099828B1D4E901219047206A401C206201
:102740002078C00622D52046FEF7FCFF1EE0002EB2
:1027500004DBB34502DD01A8805D00E03020D4E950
:1027600001219047206A401C2062761CAAF10100DA
:102770005FEA000A0AD100F0C9F8C0680168405C4D
:10278000D4E901219047206A401C2062281EA5F14F
:102790000105DCDC07E0D4E9012118F8010B9047C2
:1027A000206A401C2062381EA7F10107F3DC204696
:1027B000FEF7DEFF032011B041E6000001694A1C6C
:1027C00002610878704700B58FB0CDE90131002172
:1027D000059105497944CDE9031011466846FFF794
:1027E000B9F80FB000BD0000E5FFFFFF0A6802F86E
:1027F000010B0A607047D1E900239A4202D2531CB0
:102800000B601070704710B5436913B1AFF30080CF
:1028100001E0FEF7BEFF012010BD127800F1240197
:102820000A7000224A700122EDE711684FF0FF3272
:10283000E9E73A2800D2303820F02002412A01D3BB
:10284000A2F13700884201D34FF0FF3070470000FB
:10285000026811441378016018467047D160054939
:102860007944516104497944116200211161114692
:1028700000F0D2B8EDFFFFFF1B010000426842B13B
:10288000016811F8013B23B1521EC0E9001218463D
:1028900070470121C160881E704742685AB1C36801
:1028A000016843B983688B4205D0491E521CC0E9B8
:1028B0000012002070474FF0FF3070472DE9F041C3
:1028C000074615460E461020FFF7C1FC04000AD04B
:1028D0006760C4E9026500F01EF8016821600460C9
:1028E0000020BDE8F0810120FBE710B500F0E6FA1A
:1028F000BDE8104000F0DDBA7047000010B500F0F0
:1029000005F8001D10BD00BFC1B9030010B5FEF7EA
:102910009DFD203010BD10B5FEF798FD383010BD7C
:1029200000210160C0E901100C300EF06ABC1020DB
:102930007047801A0844401E491E8843104470475F
:1029400070B5144605468C464368002B18BF634596
:1029500038BF1846F8D302681044604508D0664670
:10296000604604220821FFF7E4FF811B8446641AB5
:102970002946CCF80040BDE8704000220CF104006C
:10298000FEF77CBD10B50446FFF7B8FF0068005D98
:1029900000F0010010BD00002DE9F0411F46044683
:1029A00003260168072A01F4006004DB08B116A5BC
:1029B00005E016A503E008B115A500E015A521F076
:1029C00010002060A069C01EA0610FB1401EA06170
:1029D0002046FEF7B7FE4FB1D4E9012138469047B3
:1029E000206A401C2062C01C206206E0206AFAE7D0
:1029F000D4E9012115F8010B9047761EF8D2204644
:102A0000FEF7B6FEBDE8F0814E414E006E616E00ED
:102A1000494E4600696E66002DE9F34F4FF0000AFB
:102A20000C4656468DB001200C9001F10C000B9025
:102A300062690B9801219047051E2DD0252D2CD0C1
:102A4000216A8847C0B162690B9801219047216AC9
:102A500088470028F7D16269411E0B98904700E033
:102A6000761CA1690D988847216A88470028F7D10C
:102A7000E1690D988847DBE7A1690D988847A8426E
:102A8000074601D1761CD3E7E1690D9888477F1C82
:102A900002D1BAF1000F6FD06BE162690B98002789
:102AA0003D46394690472A2804D162690B98012196
:102AB00090470125DFF8D08262690B980121904789
:102AC000A0F130010A290AD24745E5DC07EB87016E
:102AD00000EB4107303FDFD445F01005ECE7E90695
:102AE00001D46FF000476C280AD04C2814D0682815
:102AF00015D06A280DD074281CD07A281AD01DE071
:102B000062690B98012190476C2802D045F00405BA
:102B100014E045F002050DE045F020050AE0626989
:102B20000B9801219047682802D045F0080505E080
:102B300045F4006562690B9801219047C4E901578B
:102B400065283DD019DC58287AD00CDC452837D0D0
:102B500004DC252826D041289ED131E046282FD0FC
:102B6000472899D12CE05B2877D0612828D06328AA
:102B70007CD0642823D15AE0F6E06F2848D008DCE6
:102B800066281DD067281BD0692821D06E2816D151
:102B900027E0702845D0732868D0752847D078285A
:102BA0000DD14DE0A1690D988847252805463FF4D1
:102BB00069AFE1690D9888476D1C3FF46AAFD8E0B2
:102BC0000D9923466A466FF00100AFF30080C5E01F
:102BD00045F0400023464FF000026060A80736D45D
:102BE0003EE0E8077FF447AF2068011D21600068E0
:102BF000290501D506701BE7290701D5068017E7CF
:102C0000A90703D5F117C0E9006111E706600FE7D6
:102C100045F0400023464FF008026060A80716D434
:102C20001EE040F60E0125EA0100606016E045F066
:102C3000400023464FF00A026060A80707D40FE067
:102C400045F040006060A80708D5234610220D9982
:102C50006FF00100AFF3008080E007E01022234610
:102C60000D996FF00100FEF757FF77E04FF0000974
:102C700063284F46C8464B46CB4602D05B2806D059
:102C800038E0E80601D40120A060012732E0626943
:102C9000D4F80CB00B98012190475E2807D14FF073
:102CA000010949466269D4F80CB00B989047216934
:102CB00039B900210A4603AB43F82120491C0829F1
:102CC000FADBD8B3216949B308F1010862690B98AE
:102CD000012190475D28F4D1B9F1000F09D00020FF
:102CE00003A951F82020D24341F82020401C082895
:102CF000F7DB03AB2069002820794FEA40701ED033
:102D00005B462246CDF80080CDE901970D99002859
:102D10006FF0010020DAAFF300801FE0C11703AAB3
:102D200000EBD1614B1121F01F0102EB8302411A2C
:102D300013680120884003431360C7E719E00D9929
:102D4000224600286FF00100009702DAAFF30080FE
:102D500004E0FEF787FF01E0AFF3008000280ADA05
:102D6000401C06D10C9820B14FF0FF300FB0BDE8E9
:102D7000F08F5046FAE7E90701D10AF1010A06444B
:102D800000200C9054E60000CCCCCC0C2DE9F04790
:102D9000814616468AB0354878440DC88DE80D0046
:102DA00032487844801C03AC0DC884E80D0041F61D
:102DB0009B300844372190FBF1F290FBF1F5A5F12F
:102DC000800501FB12041B3C02D56442012000E097
:102DD0000020DFF898A080460027FA44AAF1BE0A36
:102DE0000EE0E0070AD03246684607EB47010123B0
:102DF0000AEB81012CF035FA8DE8070064107F1C86
:102E0000002CEED1194F7F44AE3F19E0E80715D0F2
:102E100007EB04100DF1180A90E80E008AE80E0086
:102E2000C068F04201D1981908903246012306A9E2
:102E300003A82CF016FA03AB83E807006D10641C9E
:102E4000002DE3D14FF0010332466946B8F1000F7F
:102E500003A802D02CF0F0F901E02CF002FAC9E945
:102E60000001C9F808200AB0BDE8F087B4C5030026
:102E70002DE9F0410646FFF74EFD8046454613E03A
:102E800016B1E068B0420ED120682860D4E9010193
:102E9000D8F8007088472046FEF721FBD8F80000DC
:102EA000B842EBD100E025462C68002CE8D1BDE803
:102EB000F081002801D0FFF731B9704710B500212B
:102EC00002A000F048F8012010BD0000534947411E
:102ED0004252543A2041626E6F726D616C2074658B
:102EE000726D696E6174696F6E00000010B500F05C
:102EF0004BF8BDE81040FFF7DCBF7546FEF7A6FAB9
:102F0000AE4605006946534620F00700854618B0D6
:102F100020B5FDF701FBBDE820404FF000064FF063
:102F200000074FF000084FF0000BAC46ACE8C009BA
:102F3000ACE8C009ACE8C009ACE8C00921F0070161
:102F40008D46704710B50446AFF300802046BDE8BB
:102F50001040FDF7F4B970B505460C460A2000E0B4
:102F60006D1C00F039F835B128780028F8D102E05E
:102F7000641C00F031F814B120780028F8D1BDE8C5
:102F800070400A2000F028B810B5012805D00021B3
:102F900003A0FFF7E0FF012010BD09A1F8E7000042
:102FA00053494752544D454D3A204F7574206F6632
:102FB0002068656170206D656D6F7279000000009A
:102FC0003A2048656170206D656D6F727920636F7E
:102FD000727275707465640008B569468DF80000FA
:102FE0000320ABBE08BD04207146084202D0EFF3B7
:102FF000098001E0EFF30880816901F098B80A20A8
:1030000025F02DBD04207146084202D0EFF309805F
:1030100001E0EFF30880816901F08DB88C4645F23C
:10302000A851C1F200010B6801461A7C58689B6ADE
:103030004A439A5C8C2312FB0300624602F072B989
:103040002DE9F04F9DB045F2A8510546C1F20001AF
:1030500000780F68032815DD042826D00C2824D01A
:103060000F2840F0028405F11C0010F010FDA97F2C
:103070000B90022005F1340B79703970B97087F824
:1030800049002BE001281BD0032840F0EE83281DC7
:1030900010F0FDFCA9790B90022079703970B9709D
:1030A00087F8490005F11C0B18E005F10C0010F041
:1030B000EEFCA97B0B9079703970B970022009E0A1
:1030C00005F10C0010F0E3FCA97B0B900120797056
:1030D0003970B97087F8490005F1240B00290C9765
:1030E00000F0CF80002601244FF0000A4FF00008C6
:1030F0004FF000095FFA89F50B98294610F0C5FCDE
:10310000817801F0E001202902D1411C06E000BFD6
:10311000017901F0E00120291AD1C11C0978013997
:103120000C2915D8DFE801F007141E2614142E45CB
:10313000505807656D00F96C4C2309FB031209FB1D
:1031400003F3CC5482F83D6065E000BF000000004E
:10315000F96C4C2309FB031209FB03F382F83D4091
:10316000CC5458E0F96C4C2309FB031C09FB03F316
:1031700003224DE0F96C4C2309FB031C09FB03F30C
:10318000042245E0F96C98274FEA490209FB07132E
:1031900001324FF04C0C09FB07F783F83D6002FB4E
:1031A0000C13CC550C9F02FB0CF28C5483F83D6041
:1031B00031E0F96C002251448B188C544C32E42AD3
:1031C00083F83D60F8D126E0F96C4C2309FB031C21
:1031D00009FB03F309221BE0F96C0022414400BF04
:1031E0008B188C544C32B2F5987F83F83D60F7D140
:1031F00011E0F96C4C2309FB031C09FB03F30C22BF
:1032000006E0F96C4C2309FB031C09FB03F30D22B8
:10321000CA548CF83D6097F8491001290ED0022954
:1032200040F01C83F96A4FF4987309FB03120226DD
:10323000D6700078002600F01F0009E0F96A4FF40C
:10324000987309FB0312D4700078C0F3430001386F
:1032500009FB0311487010F097FE294610F0BFFEDD
:10326000396B4FF41A7209FB021109F10109C1F817
:10327000FC01787808F5987881450AF1E40AFFF4B2
:1032800039AF45F2A850C1F20000D0F8008000200C
:10329000002100BF1BF80020CBB29A420B4688BF2A
:1032A0001346FF2A00F1010018BF19460428F1D186
:1032B000D8F84440481C0BF1C405002688F80200E9
:1032C000002700BFE85910F05FFA54F82600384490
:1032D0000437182F80ED000AF4D10136042E05F1D1
:1032E0001805EDD1D8F838000BF1440107F0ACFE19
:1032F000D8F834000BF18405294607F0A5FED8F86C
:103300003C00294607F0A0FED8E90F2A0DF1340948
:1033100000234946002700BF52F827005AF82760CB
:10332000002500BF445973514C510435102DF9D17B
:103330000137042F01F11001EED100204FF07E5132
:103340005AF80020115004301028F9D11FED811ACD
:1033500009F1100C00250126BFEE000A4B46CE46AF
:103360004FF0FF327146B0EE412A2C4691ED003A03
:10337000103123EE033AB4EE423AF1EE10FAC4BF34
:10338000B0EE432A22460134042CEFD1501C59D010
:103390005AF82560AA4210D05AF8220009EB02110F
:1033A000002200BF8C589F589C508F508458B758AB
:1033B000B45087500432102AF4D109EB051000EB09
:1033C000850090ED002A624680EE022A2C4600BF5E
:1033D000013409EB041000EB850090ED003A5AF837
:1033E000241022EE033A0027D81990ED004AD01994
:1033F00090ED005A23EE044A34EE054A80ED004A6F
:10340000F01990ED004AC81990ED005A23EE044AD5
:10341000043734EE054A102F80ED004AE4D1032C26
:1034200002F11002D4D1022D05F101054FF0000682
:1034300038BF01260EF1140E10330CF1100C032DC1
:103440008ED101E0F00762D109F1200C09F13003BF
:103450004FF0030E09EB0E1000EB8E0090ED001AFA
:103460005AF82E5080EE011A624676463446013EE6
:1034700009EB061000EB8E0090ED002A5AF826109A
:1034800021EE022A002000BF1F1897ED003A1718FE
:1034900097ED004A22EE033A33EE043A87ED003A04
:1034A0002F1897ED003A0F1897ED004A22EE033AD5
:1034B000043033EE043A102887ED003AE4D1012CB1
:1034C000A2F11002D2DCBEF1010EACF1100CA3F19E
:1034D0001003BFD80022B7EE000A00BF09EB0210AC
:1034E00000EB820090ED001A5AF8220080EE011ADB
:1034F000002100BF431893ED002A043121EE022A77
:10350000102983ED002AF5D10132042AE6D145F2D3
:10351000A859C1F20009D9F800500B9F002000BF44
:103520001BF80010FF2903D06A6A11542A6A11544B
:1035300001300428F4D16878E8B10024002600BFE7
:10354000E1B2384610F0A1FA407821F0E3FE0028FD
:1035500008BF0120F1B250FA86F000BF1BF804202A
:10356000AB6A01365A54F1B28842F7D8697801340F
:103570008C420646E4D338460021002410F085FA38
:10358000407821F0C7FE002808BF01206978AA789A
:103590002874484328704AB1002000BFE9680C54E1
:1035A000A97801308842F9D328780C46000610D05B
:1035B000002000BFA96AEA68095CEB69575C53F810
:1035C00021307E1C5654D855297801308842F1D3D9
:1035D000AC784FF0000044B1002100BFAA685054FD
:1035E000AA7801319142F9D31046697881B100205F
:1035F000696AAA68095CAB69575C53F821307E1C84
:103600005654D855697801308842F1D3A87800E043
:10361000002140B100200021AA685054AA7801314D
:103620009142F9D3697879B1002000BF296AAA686C
:10363000095C6B69575C53F821307E1C5654D85591
:10364000697801308842F1D398F80200A8B30BF1F1
:1036500004040025002600BFA078D8F80410C0F3A9
:10366000011248198263A1788909C163617801F068
:10367000030141636178C1F3810101646178C1F3A1
:1036800001114164617889098164A17801F0030125
:10369000C164A178C1F3810101652178C1F34001C2
:1036A00080F86210211D04F0ADFB98F8020001368D
:1036B0001034864205F18C05CED3D9F800900C98D1
:1036C00099F80280B8F1000F58D0D9F804E000232F
:1036D0004FF08C0C4FF41A75012400BF03FB0CE172
:1036E00091F86510032919D002292DD0012941D163
:1036F000D9F80860F15C00293CD0D9F81410D9F849
:10370000307051F823200021505C013110FB05700E
:1037100080F8D941F05C8142F6D32BE0D9F80860FB
:10372000F05C38B3D9F81400D9F8307050F8232081
:10373000002100BF505C013110FB057080F8D941B9
:10374000F05C8142F6D315E0D9F80860F05C88B1EE
:10375000D9F81400D9F8307050F82320002100BFA8
:10376000505C013110FB057080F8D941F05C81425A
:10377000F6D300BF01330C984345AFD1D0F8448055
:1037800001200021B7EE000A58F82120002702EBA3
:10379000810300BFB94205D193ED001AB4EE401A7F
:1037A00004E000BF92ED001AB5EE401AF1EE10FAF7
:1037B00007F1010718BF0020082F02F10402E9D128
:1037C00001310429E0D1002818BF4FF000080C9FF8
:1037D000B878002849D078680025002628440B9046
:1037E0000C98D7E902127B6987690C9857F8267004
:1037F000C46988190A900C9854F826E0D0F82CC0B7
:103800000C984146046B0C9853F82630D0F834904D
:103810000C983244D0F838A00C98D0F83CB00C98F2
:10382000D0F840800C98C06CCDF820808846099173
:10383000CDE903C0DDE90A1000970C9FCDE901E452
:10384000CDE9059BCDF81CA001F0E1F978680136BF
:103850004655B9788C358E42C0D306E0F86A4FF4ED
:10386000987109FB01000021C1701DB0BDE8F08F07
:103870002DE9F04F81B045F2A857C1F200073C682E
:103880000546206B4FF41A7805FB080000920430BF
:103890000E4600F0F9FC38683146006B05FB080065
:1038A000603000F0F1FC38683146006B05FB080021
:1038B000603000F0E9FC38684FF49877C06A06F190
:1038C000500105FB0700883000F0DEFCE06A96F846
:1038D000BA1005FB070003F0B5F8E06A06F19C0199
:1038E00005FB070091EC060A03F0E9FC206B5FFA88
:1038F00085FA05FB08005146324600F015FF207C92
:1039000080B34FF04C0B002705FB0BF84FF000097C
:103910000099042908D1E16C684300FB0B1038447E
:1039200005F050F9B8B9207CE16CD6F8982008FB76
:10393000001096ED2F0A3844514601F060FA45F226
:10394000A850C1F20000006896ED300AC06C05FB7B
:103950000B0005F02EF9207C09F10109814507F1E2
:103960004C07D5D301B0BDE8F08F45F2A852C1F2A3
:10397000000212684FF41A73126B00FB032003F06D
:1039800045B845F2A853C1F200031B6800EE101AB7
:10399000D3F830C04FF41A7300FB03C001EE102AB5
:1039A000B8EEC00AF8EEC10A01F0D4B9F0B581B0A2
:1039B00045F2A856C1F2000632680446106B4FF477
:1039C0001A7704FB07000D46043000F05DFC3068F8
:1039D0002946006B04FB0700603001B0BDE8F040F1
:1039E00000F052BC0A4645F2A851C1F20001096834
:1039F0004FF49873C96A00FB0313C1B2184600F074
:103A00002FBF45F2A852C1F2000212684FF498731A
:103A1000D26A00FB032003F08BBB45F2A852C1F22F
:103A2000000212684FF49873D26A91EC060A00FB08
:103A3000032003F044BC45F2A851C1F2000109681B
:103A40004FF49872C96A00FB021004F011BA45F2F3
:103A5000A852C1F2000212684FF49873D26A00FBB8
:103A6000032003F029BD00F08FB8000070B545F2C7
:103A7000A854C1F200042268907858B100250026AD
:103A80005068284400F01EFD2268013690788C357D
:103A90008642F5D3D06A517892F84920BDE870404B
:103AA00000F0CABFF0B581B045F2A856C1F20006D9
:103AB00032680546106B4FF41A7205FB02000C4683
:103AC00001F0BEF83068017C91B1C06C69434C22B2
:103AD00001FB02004434002500F14C0702F002FD16
:103AE000316844F82500087C013585423846F3D317
:103AF00001B0F0BD45F2A852C1F2000212684FF4C5
:103B00009873D26A00FB032001F0BCB8F0B581B015
:103B100045F2A857C1F2000716463A680446106BF2
:103B20004FF41A7204FB02000D4602F03DFF40B153
:103B300038684FF49871C06A04FB0100294602F00E
:103B400084FF46B138684FF49871C06A04FB0100E5
:103B5000D0F88400286101B0F0BD000070B545F2D6
:103B6000A854C1F200042068817861B100250026C4
:103B700040680D21284405F02BF820680136817833
:103B80008C358E42F4D370BDF0B581B02DED048B31
:103B900045F2A850C1F200000468002C7AD0607889
:103BA0009FED3E9A01250026B7EE008A4FF41A7762
:103BB000A0702574A06800228555206A8655A06AE9
:103BC0008655606950F826000670E06B616B50F80E
:103BD000260051F8261000BF9642B0EE490A02F1C5
:103BE000010208BFB0EE480AA0EC010AA1EC010AEC
:103BF000042AF1D1606C002150F826008E42B0EE0C
:103C0000490A01F1010108BFB0EE480AA0EC010A1F
:103C10000829F3D1206B06FB070000F0B6FAE06834
:103C20008555E06950F8260006700136042EC1D192
:103C300000254FF4987600BF606A00224555A069C0
:103C400050F825000570206CA16B50F8250051F844
:103C5000251000BF9542B0EE490A02F1010208BFEB
:103C6000B0EE480AA0EC010AA1EC010A042AF1D145
:103C7000E06A05FB060000F0E1FA0135042DDBD116
:103C8000002500BFE06C284400F09FFF4C35B5F5DF
:103C9000187FF7D1BDEC048B01B0F0BD000000002F
:103CA000F0B581B045F2A855C1F200052A68137C31
:103CB0008BB10C46D16C58434C2200FB02100026FD
:103CC000214600F14C0701F0E9FA28680136007C32
:103CD00086423846F4D301B0F0BD45F2A852C1F295
:103CE000000212684FF49873D26A00FB032004F0BC
:103CF000B9B845F2A852C1F2000212684FF49873A5
:103D0000D26A00FB032005F0ADB845F2A852C1F21B
:103D1000000212684FF49873D26A00FB032005F08A
:103D2000A0BA45F2A852C1F2000212684FF498738B
:103D3000D26A00FB032003F0D3BB45F2A852C1F2C4
:103D4000000212684FF49873D26A00FB0320883097
:103D500000F09ABA45F2A851C1F2000109684FF487
:103D60009872C96A00FB021003F0ACBAF0B581B0DA
:103D700045F2A857C1F200073C680E4605465CB9FB
:103D800014F04AFD04215022012314F04FFD044693
:103D90000028386000F0DC80042026706570A57073
:103DA00000F08AFC606014F037FD04210122042336
:103DB00014F03CFDA06014F02FFD04210122042327
:103DC00014F034FDE06014F027FD042104220423E4
:103DD00014F02CFD606114F01FFD04210422042363
:103DE00014F024FDA06114F017FD04210422042323
:103DF00014F01CFDE06114F00FFD042101220423E6
:103E000014F014FD206214F007FD042101220423A4
:103E100014F00CFD606214F0FFFC04210122082361
:103E200014F004FDA062042007F0D8F820630420F9
:103E300007F0ECF8E062082000F06CFEE06414F09B
:103E4000EBFC04210422042314F0F0FC606314F062
:103E5000E3FC04210422042314F0E8FCE06314F0E2
:103E6000DBFC04210422042314F0E0FCA06314F022
:103E7000D3FC04210422042314F0D8FC206414F0A1
:103E8000CBFC04210422042314F0D0FC0025606440
:103E900014F0C2FC04210122042314F0C7FC616960
:103EA00041F8250014F0B8FC04210422042314F086
:103EB000BDFC616B41F8250014F0AEFC0421042226
:103EC000042314F0B3FCE16B41F8250014F0A4FCCA
:103ED00004210422082314F0A9FC616C41F8250098
:103EE0000135042DD4D1002514F096FC04210122C3
:103EF000042314F09BFCA16941F8250014F08CFC0C
:103F000004210422042314F091FCA16B41F8250044
:103F100014F082FC04210422042314F087FC216C99
:103F200041F825000135042DDED1002514F074FC84
:103F300004210122082314F079FCE16941F82500ED
:103F40000135042DF2D1FFF71FFE204601B0F0BD70
:103F50000024FAE745F2A852C1F200021268136A7F
:103F60005268185C8C2310FB032004F031BE45F22C
:103F7000A852C1F200021268136A5268185C8C23BE
:103F800010FB032005F096B945F2A851C1F20001DB
:103F900009684FF41A72096B00FB021001F017B8A0
:103FA00045F2A851C1F2000109684FF41A72096B79
:103FB00000FB021001F014B845F2A851C1F2000153
:103FC00009684FF41A72096B00FB021001F036B851
:103FD00045F2A851C1F2000109684FF41A72096B49
:103FE00000FB021001F057B845F2A851C1F20001E0
:103FF00009684FF41A72096B00FB021001F054B803
:1040000045F2A851C1F2000109684FF41A72096B18
:1040100000FB021001F051B845F2A851C1F20001B5
:1040200009684FF41A72096B00FB021000F0FCB82B
:1040300070B545F2A854C1F2000421680A7C7AB137
:10404000C96C50434C2200FB0210002500F14C06C5
:1040500001F04DF920680135007C85423046F5D3EA
:1040600070BD0000F0B581B045F2A856C1F200065F
:104070003268137C8BB10C46D16C58434C2200FB48
:104080000215002734F82710284600F0DCFE3068BF
:104090000137007C4C358742F4D301B0F0BD45F2C6
:1040A000A851C1F2000109684FF41A72096B00FBB4
:1040B000021005F08DB945F2A851C1F2000109685E
:1040C0004FF41A72096B10FB021003F057BD45F252
:1040D000A852C1F2000212684FF49873D26A00FB32
:1040E000032003F0C8BE45F2A852C1F200021268D4
:1040F0004FF49873D26A00FB032005F0C3B945F270
:10410000A852C1F2000212684FF49873D26A00FB01
:10411000032003F052B845F2A852C1F2000212681F
:104120004FF49873D26A10FB032003F0DFB9014605
:10413000082024F0ACBC0146062024F0A8BC0146AF
:10414000072024F0A4BC0146092024F0A0BC0420D0
:104150007146084202D0EFF3098001E0EFF30880D6
:104160008169FFF7ECBF052024F079BC0B2024F017
:1041700076BC04207146084202D0EFF3098001E0CA
:10418000EFF308808169FFF7DEBFF0B581B000274B
:104190000446C0F8BC70E430122104F1F80604F5BE
:1041A000AE75FDF752FF30466021FDF74EFF284601
:1041B00000F0AAFC04F5B276304600F0A5FC2846D3
:1041C000642104F0BDFF3046322104F0B9FF2846D7
:1041D00000F0F8FC304600F0F5FC04F5B670002164
:1041E0000022002300F066FD201D06F0F1FE04F120
:1041F000600006F0EDFE0B2084F8D40104F1C40049
:10420000202104F5FC7584F8C070FDF71EFF2846D8
:10421000282184F8D971C4F8D571FDF716FFFF2065
:1042200084F81C0201B0F0BD90ED480A00F5B670AC
:10423000BDEEC00A10EE101A00F05BBD10B54FF4D1
:1042400098710446FDF701FF4FF07E50606040F228
:104250000110A4F8E4004BF2B000A4F8FC00002028
:1042600084F8E800C4F8F400A4F8EC0004F58070C9
:1042700000F04AFC04F5907000F046FC04F58470F0
:104280001421FDF7E2FE10BDB0B52DED0A8B0D46F1
:1042900091F82410012202FA01F100EE101AB8EE92
:1042A000C00AB7EE008A88EE009AA9690446016048
:1042B00095ED000A95ED033A95ED011A95ED022A68
:1042C000142120EE09AA29EE030A80ED01AA80ED4F
:1042D000040A143029EE02BA29EE01CAFDF7B5FE30
:1042E00028699FED252AA06295ED070A95ED081A29
:1042F00029EE000A84ED0D0A29EE010A84ED0E0A6A
:104300009FED1E0AB2EE041A2BEE000A2AEE011AE5
:1043100031EE001A80EE011A696900202CEE022AA3
:10432000B5EE400A9FED163AC4E9131084ED032A56
:10433000F1EE10FA4FF00001B5EE40AA606584F886
:10434000580084ED020A38EE412A18BF0121F1EE2F
:1043500010FA18BF012020EE020AB0EE432A0840EE
:104360001CBFB0EE412AB0EE403A84ED0B2A84ED3A
:104370000C3ABDEC0A8BB0BD6F12033A00007A44D0
:104380000000000090ED081A90ED033A90ED094A04
:1043900031EE005A23EE055A90ED0A3A90ED012ACB
:1043A00035EE044AB4EE434A22EE002AF1EE10FA4A
:1043B00080ED094A06DCB1EE433AB4EE434AF1EE31
:1043C00010FA03DAB0EE434A80ED093A32EE042ADD
:1043D00090ED074A90ED0B5A90ED0C6A30EE411AC1
:1043E00025EE044A26EE011A90ED003A31EE041A49
:1043F00032EE014A90ED132A80ED071A34EE031ACB
:10440000B4EE421AF1EE10FA80ED080A02DDB0EEC9
:10441000421A08E0B1EE420AB4EE401AF1EE10FA88
:10442000B8BFB0EE401A90F85810042904D8DFE85D
:1044300001F00308111A2300B0EE410A80ED141AAE
:104440002CE090ED150A90ED142A9FED1C3A9FED9B
:104450001C4A19E090ED150A90ED142A9FED153ACB
:104460009FED154A10E090ED150A90ED142A9FED8E
:104470000F3A9FED0F4A07E090ED150A90ED142AD0
:104480009FED083A9FED084A31EE000A20EE030A3C
:1044900022EE042A32EE000A80ED140A80ED151A8D
:1044A000704700BF8F90CD3A6F327F3F1F4C243B47
:1044B00068B77E3F75B2613B9B3C7E3F72FA183C09
:1044C0002C387B3F2DE9F047044602F0DDFA204608
:1044D00003F0D2FB94F8630020B12046BDE8F0471A
:1044E00002F026B894F86C10FF2904D1002084F85B
:1044F0006300BDE8F087D4F80480226F98F800A02C
:1045000047F230539A4218DAA06890F80080501CA5
:104510002067C81E01220B2884F8632000F26D80FA
:10452000DFE800F00706720606767A7E82868A8EBB
:10453000DCE7204605F048F885E0FE2921D1BAF1F4
:10454000000F53D0E168A26900234FF41A7E4FF4A4
:10455000987C5546CE5C16FB0E2696F81C72062FEC
:104560000CD12569E769ED5CD6F8140215FB0C75D2
:104570002863D6F81802686398F800500133AB42FC
:10458000E8D3FF2084F86C004FF00B080020BAF14C
:10459000000F84F85E8084F8630025D000274FF474
:1045A0001A794FF4987600BFD4E90301A269C05D7F
:1045B000E36910FB092080F8D481C85D002110FB5D
:1045C000063000F005FE2069E169C05D10FB0610B1
:1045D00000F0D8FA2069E169C05D10FB061000F018
:1045E0003DFE0137BA45DFD1BDE8F087FF2084F8F2
:1045F0006C000B2084F85E0078E7FE297FF476AF2C
:10460000204606F07FF91EE0204604F0F9FF1AE08C
:10461000204605F017F816E0204605F039F912E0BB
:10462000204605F055FB0EE0204605F0ADFB0AE004
:10463000204605F067FC06E0204605F07FFC02E01E
:10464000204605F097FC002884F8630008BFBDE809
:10465000F087B8F1000F0ED000274C266069A16DDD
:10466000C05D10FB061003F000FB00283FF43EAFD6
:104670000137B845F2D1FF2084F86C00204602F0E3
:1046800003FA0020BAF1000F84F85E000DD0E16853
:10469000A2694FF41A7300BF11F8017BBAF1010A45
:1046A00017FB032787F8D401F6D120460121BDE886
:1046B000F04704F08DBA00002DE9F04F81B00546B7
:1046C00014F0AAF804218C222B468C2614F0AEF8A4
:1046D000044625B305FB06FB00264FF00B084FF000
:1046E00001194FF0FF0A0027E51905F118001C21F8
:1046F000AE65C5E90166C5E90366FDF7A6FC05F1EF
:1047000034002021A5F85E80FDF79FFC8C37BB4567
:10471000C5F8609085F8656085F86CA0E4D1204606
:1047200001B0BDE8F08F000070B5044690F8F500C8
:104730001546217050B19FED431A9FED433A9FED0E
:10474000432ADFED430A9FED430A13E095ED1F1A5C
:1047500095ED1E0A95ED202A95ED213AF8EEC10A55
:1047600095ED251AB8EEC00AB8EEC22AB8EEC33AE3
:10477000B8EEC11A04F1E40084ED3E0AC4ED3F0A2C
:1047800084ED402A84ED413A80EC030A95ED222A1B
:1047900049F28060C4F61830C4F8F00084ED542A61
:1047A000D5F88C00B7EE003AC4F85401D5F8900063
:1047B000DFED2A1A83EE023AC4F84C01B5EE402A26
:1047C00004F5B6709FED244AF1EE10FA08BFB0EE82
:1047D000443A84ED563A03F067FBB5F8B81004F597
:1047E000B276304604F0ACFC304600F0EBF9002025
:1047F000C4F85801D5F8C400C4F8BC0095F8C80046
:1048000084F8C000E8B1D5F8D410D5E93302C4F873
:10481000CC10C4E93102D5F8E010D5E93602C4F86D
:10482000D810C4E93402D5F8E400C4F8DC00D5F8A7
:10483000E81004F50870C4F8E010BDE8704008F016
:10484000F7BB70BD000080465575D8465575D8C673
:104850005555D5465555D5C6000000008096184BD5
:104860002DE9F04387B0154601702F46044637F80E
:104870006E0F0A4657F81E1C4FF0FF36616017F89E
:10488000091CC1F34001217257F81A1C57F8163C55
:10489000B1F1FF3FC8BF0126A664B91F91ED000A20
:1048A000608184ED130AD7F802002063D7F8060070
:1048B00023656063A7F15A0090ED001AE378BDEE1E
:1048C000C11A84ED181A37F90E0C022BE06637F97D
:1048D000020C81B200F09A80012B40F0A98008B24E
:1048E000B0F5FA4FA8BF4FF4FA402061A5F86C006C
:1048F000002084F8280195F8650004F59478C0F349
:10490000800084F8280195F86510CB0704D00230A8
:1049100088F8000095F865100B0704D5083088F872
:10492000000095F865108B0705D540F0040088F865
:10493000000095F86510CB0604D5103088F800000B
:1049400095F86510490644BF203088F80000686D6E
:10495000B2EE041AA4F82901B5F8620020EE010AAB
:10496000A4F82B0195F86400BDEEC00A84F82D016F
:1049700010EE100A84F82E010120012100234FF0CF
:10498000000920F017FD06462046294606F0F0FEF5
:1049900005F12801204606F08BFF4FF49040ADF85A
:1049A000140005F15C0006900EF05AFB05A9324692
:1049B0000EF014FD4FF4F240ADF80C0004970EF029
:1049C0004FFB03A932460EF009FD4FF4EE40ADF85F
:1049D0000400CDF808800EF043FB01A932460EF02A
:1049E000FDFC04F590752846322104F0A9FB284609
:1049F00000F0E8F804F580752846322104F0A0FBA9
:104A0000284684F8FD9000F0DDF812E008B2B0F519
:104A1000526FA8BF4FF452602061A5F86C00607817
:104A2000002184F8FC1007B0BDE8F0432EF0C4BAB2
:104A3000206107B0BDE8F083B0B584B0C2780C4601
:104A4000012A12D0022A2BD154B300F1840500BFF1
:104A5000296815F8830C45F8701C09B22EF0DAFDB0
:104A6000013C05F59875F3D11AE0002103910291FC
:104A70005CB1843002A900BF026810F8833C013C9D
:104A800000F5987021F81320F6D140F601700090DF
:104A900002A801900EF0E4FA694600220EF0E7FC4D
:104AA00004B0B0BDB0B50446C078012803D194F875
:104AB000F420D2071DD1013902291AD84FF6F87215
:104AC000C0F2FF0202EAC10140F65022C0F2060223
:104AD000022822FA01F50ED001280AD12078E9B285
:104AE00006F092FD04F5807084F8FD5000F06AF83D
:104AF00008E00020B0BD2EF053FE60782EF0F4FAEE
:104B000084F8FC500120B0BD0021C0E900117047BD
:104B100020F03EBB70B5044613F07EFE04214C220B
:104B200023464C2513F082FE5CB304FB05F1002202
:104B30004FF0010C6FF0802E4FF07E53002400BF29
:104B4000051995F8406000F804C006F0F0064C34F2
:104B50000736A142A5F83B2085F83D2085F83A208C
:104B60002A87C5E90122C5E90322C5E90723C5E96A
:104B70000922C5E90B22C5F834E06A6485F8406073
:104B8000DED170BDB0B50446C07802280FD0012830
:104B900018BFB0BD20780021002506F035FD04F5D2
:104BA000807084F8FD50BDE8B04000F00BB860782C
:104BB0002EF002FA94F8FC00A0281CBF002084F814
:104BC000FC00B0BD416801607047012202706FF0C7
:104BD0008022426390F8402000214FF07E53A0F8DD
:104BE0003B1080F83D1080F83A100187C0E90111B0
:104BF000C0E90311C0E90713C0E90911C0E90B11AD
:104C0000416402F0F001073180F8401070472DE94F
:104C1000F04FDDE90D7ADDE911ECDDE90F98DDE912
:104C20000B5B8765071DDDE909465EC7C0E9065BCA
:104C3000C0E908A8C0E90A9EC0F830C0BDE8F08FFE
:104C4000B0B50446B0F8D4010D46888404F5B670BA
:104C500001F01EFC94ED480A94ED491A94ED4A2A9D
:104C6000BDEEC00ABDEEC11ABDEEC22A85F826000F
:104C700085ED000A85ED011A85ED022AD4F82C0194
:104C8000E860B0BD10B50C46D0F814C0026A816E61
:104C9000836A4FF0000E84E80C40A181A4F810C094
:104CA00005F0C8FC28B14FF62460C0F60500006886
:104CB000606110BD80B500EE101A01EE102A02EE00
:104CC000103AB8EEC00AB8EEC11AB8EEC22A0022F5
:104CD00000F1300180ED050A80ED061A80ED072A0B
:104CE000C0E9082280F8282008461421FDF7ADF914
:104CF00080BD10B590ED000A90ED011A02EE101A79
:104D0000B4EE410AF1EE10FAB8EEC22A0ED0B4EEBB
:104D1000420AF1EE10FA0BDCB4EE421AB0EE420A8F
:104D2000F1EE10FAB8BFB0EE410A01E0B0EE420A6F
:104D300000F1180180ED040A80ED050A00F130044D
:104D400008461121FDF781F920461421FDF77DF970
:104D500010BD0000014690F8F5009FED0B1A9FED85
:104D60000B2A002804BFB0EE401AB0EE602A81ED95
:104D7000391A9FED071A01F5B670F0EE411A81ED70
:104D80003A2A03F091B800BF5555D5C65555D546BA
:104D90000000000010B50446C078022811D0012898
:104DA00015D12078092106F02FFC002084F8FD00A1
:104DB00004F58070FFF706FF04F59070FFF702FF1F
:104DC00005E060782EF0F8F8002084F8FC00002060
:104DD00084F8E800C4E93C00C4F8EA00A4F81C0127
:104DE000A4F8E60010BD90F8FC100120062918BFB9
:104DF0000A2900D17047502918BF0020704710B50C
:104E0000044690F83D0084F83B1048B10121E1616F
:104E100094F840104FF07E50206221F004000DE025
:104E20004FF0FF30B2F1FF3FC8BF0120E0612046E4
:104E300084ED090A04F06EFB94F8400000F0FE00D7
:104E400084F8400010BD70B586B0002800F0BD8029
:104E5000044690F83D00002840F0B78094F84000E8
:104E6000C20740F0B28000224307226313D4B4F992
:104E700034006282A289A18190B38A1A434212B29D
:104E80009342D8BF82422BDD204650F82C1F8289E6
:104E9000013282812AE022780D2A00F294800123D7
:104EA00003FA02F243F602631A4273D094F83C20EC
:104EB000002A00F08280A3898B4240F08180013279
:104EC00053B2032B84F83C207DDB228AA181E1814F
:104ED000891A89B2A1620021618284F83C1067E0DE
:104EE000E28920468A4204D150F82C1FC1EBC1014F
:104EF00012E050F82C3F8A1A20F81E1C50F8041CAF
:104F000020F81A2C01FA82F140F8041CC3EBC3010B
:104F10004FF47A7313FB0211C91001601EF010FEEA
:104F20001EF017FE05460E461EF00AFE1EF018FE85
:104F30000246284631460023FCF756FB52EA03009E
:104F400043D1208F002840D094F93B100025ADF8C4
:104F50000E10CDE9040502200A21ADF80C501DF019
:104F60009CFC02900FF0B1FA02AE03210022002354
:104F700000960FF087FA208FE18E884208D994F8C6
:104F8000440040F0100084F84400012084F83A0006
:104F900025871AE012F0180F15D0228AA181E1812D
:104FA000891A89B20022C4E90A12628284F83C207C
:104FB00000F0FB0084F8400005E00120A18100E042
:104FC000002084F83C000020E06206B070BD90F83C
:104FD000D411062912BF002080ED430A012070473A
:104FE00080B590F8D41109291CBF002080BDB0EE17
:104FF000401A90ED390A90ED3A2AB4EE420AF1EEE9
:1050000010FA0ED0B4EE410AF1EE10FA0BDCB4EE59
:10501000412AB0EE410AF1EE10FAB8BFB0EE420AF2
:1050200001E0B0EE410A002180ED440AC0F81411FD
:1050300000F5B67002F022FB012080BD80B590F82B
:10504000D4210021082A24D8012303FA02F212F401
:10505000C17F1ED090ED391A90ED3A2AB4EE421A73
:10506000F1EE10FA0ED0B4EE401AF1EE10FA0BDCAD
:10507000B4EE402AB0EE401AF1EE10FAB8BFB0EE2E
:10508000421A01E0B0EE401AB0EE410A06F08DF887
:105090000121084680BD90F8D411502912BF00208C
:1050A00080ED430A0120704790F8D411032912BF04
:1050B000002080ED470A0120704710B52DED048BCC
:1050C000044600F5B270B0EE608AB0EE409AFFF789
:1050D00079FD94F8D41100200E2941D8012202FA5A
:1050E00001F144F2841211423AD094ED3B0AB4EE3D
:1050F000490AF1EE10FA02DAB0EE409A08E0B1EE99
:10510000400AB4EE490AF1EE10FAC8BFB0EE409A78
:1051100094ED3C0AB4EE480AF1EE10FA02DAB0EE71
:10512000408A08E0B1EE400AB4EE480AF1EE10FA07
:10513000C8BFB0EE408AB5EE408AF1EE10FA04F531
:10514000B67084ED459A84ED468A02D102F0BFFE26
:1051500005E0B0EE490AF0EE480A02F0BBFA012081
:10516000BDEC048B10BD80B590F8E61009B10120AC
:1051700080BDC178022906D0012907D190F8F4003A
:1051800000F0010003E02EF043F800E000200028CA
:1051900018BF012080BDD0E90C3293420AD0D0F86C
:1051A00020C0B1F1FF3FD8BF9C450CDB0129A8BF4F
:1051B000944508DC026E53428A42A8BF0A468B42DD
:1051C000C8BF1A4600E000224266C0F8842070473B
:1051D000D0E90C3293420AD0D0F820C0B1F1FF3FA1
:1051E000D8BF9C450CDB0129A8BF944508DC0269A7
:1051F00053428A42A8BF0A468B42C8BF1A4600E003
:1052000000228261C0F8842070470000D0E90C328F
:1052100093420AD0D0F820C0B1F1FF3FD8BF9C45DF
:1052200015DB0129A8BF944511DC00EE101A90EDA2
:10523000011AB8EEC00A9FED082A21EE000A80EE9E
:10524000020A4165BDEEC00A10EE101A01E000210D
:105250004165C0F88410704700007A44B0B582B050
:10526000C1780122012980F8E52011D102780120BE
:1052700001210023002520F09DF804464FF48060B2
:10528000019500900DF0ECFE694622460EF0A6F85E
:1052900002B0B0BD80F858107047000010B190F80F
:1052A0003D2002B1704790F840209207FAD1028E5B
:1052B000332A39BF01320286012280F83A200329BD
:1052C00006D80122DFE801F00C060702082202E0FE
:1052D0000F2905D0022290F84410114380F84410A1
:1052E000002180F83C10704790F83D00704710B1E5
:1052F00090F83D1001B1704790F840108907FAD13D
:10530000418E332939BF01314186012180F83A109D
:1053100090F8441041F0040180F84410002180F816
:105320003C1070472DE9F04F81B02DED048BAAB0F1
:10533000044680690D464FF41A71164615FB0101AB
:10534000FE2291F8D4B194F85EA081F8D421002116
:1053500084F85E2084F8631031784AB2D31E0B2B98
:1053600000F21784DFE813F08A0015049100AE0004
:10537000BA000C000C0030015F01D201310264025E
:1053800094F86C30934200F00484002284F86C108E
:10539000E168626522670F784FF41A7517FB0507FD
:1053A000FE236269D4F858C087F8D4314F7817FBD0
:1053B000050787F8D431897811FB050080F8D431CE
:1053C00010784C2510FB05C003F0E7FB6069A16D68
:1053D000407810FB051003F0E0FB6069A16D807858
:1053E00010FB051003F0D9FB7068E1696067B068D5
:1053F0004FF49875E067F068A0672069007810FBAB
:105400000510FFF72BFF2069E169407810FB0510BC
:10541000FFF724FF2069E169807810FB0510FFF792
:105420001DFF2069E169007810FB05100121FFF7DD
:1054300039FB2069E169407810FB05100121FFF775
:1054400031FB2069E169807810FB05100121FFF72D
:1054500029FB2069E169027812FB0512D26BC4F8BE
:105460008020427812FB0512D26BC4F88420807829
:1054700010FB0510C06BC4F888008AE3A06D4C23B4
:10548000D6E9031215FB03008DE100202067E069D7
:105490004FF49871331D15FB01000ECBD21A05F0A5
:1054A00091F8A169002800F03F824FF41A7015FBB3
:1054B000001002F0B1FCA06D4C2115FB010003F0BF
:1054C0006CFBB1E1328B4FF6FF739A4200F04E82D3
:1054D000012A40F0C18206F1100249E24FF41A7924
:1054E0000022FE2315FB0900226784F86C3080F847
:1054F0001C1280F80122A0694FF0010815FB090079
:1055000080F80082A069D6E9031215FB0900D0F8E3
:10551000FC71501A00EE100AD7E91E02B8EEC00A5C
:10552000121A01EE102AB8EEC11A80EE018A00EEBE
:10553000101AB8EEC00A01EE100AB8EEC11A80EED9
:10554000080A30EE410ABDEEC09A0AF038FA0E2180
:105550008DF810508DF811108DED168A8DED179A7B
:10556000016816AA4B6A04A99847A06D4FF04C0A2F
:1055700015FB0A00B0EE480A03F052FEA06D15FBC1
:105580000A0090F8401041F0040180F8401096EDB8
:10559000030A97ED1E1AB8EEC00A80EE080AB8EEAC
:1055A000C11AA06915FB090030EE410AB8EEC91A0C
:1055B00030EE410ABDEEC00A80ED810AA06915FBFC
:1055C000090080F80182E4E284F86C100021216770
:1055D0004FF41A7115FB010002F01EFCE0694FF454
:1055E000987715FB0700002103F0E6FCE069012134
:1055F00015FB0700FFF756FAE1697068A26D15FB0D
:1056000007114C27C86115FB072003F01BFEA06D96
:10561000B16815FB07002AB0BDEC048B01B0BDE8F2
:10562000F04F05F05FBCA06DE42115FB0107F869A0
:105630007168C0EBC032384603F02FFEBA6EB16815
:1056400007F14C00C2EBC23203F027FED7F8B420BA
:10565000F16807F19800C2EBC23203F01EFE20464B
:1056600001F012FAE0694FF4987715FB070000216A
:1056700003F0A2FCE069012115FB0700FFF712FA15
:10568000E06915FB0700FFF7E9FDA0694FF41A7107
:1056900015FB01004FF4F851C0F8E411716990ED69
:1056A000481A9FEDF72AC0F8E81131EE021A316965
:1056B00090ED3A0ABDEEC12AB8EEC21AC0F8F41154
:1056C0004FF46171B4EE410AC0F8EC1100F5F871C5
:1056D000F1EE10FA80ED7C2ABEBFBDEEC00A81ED6E
:1056E000000AB8EEC01A90ED390AB4EE410AF1EEA4
:1056F00010FAC4BFBDEEC00A81ED000A307884F80C
:105700006C00012060650020206742E20EF03CFC46
:1057100029460EF071FCD6E90121002A00D552423B
:1057200000EE102A90ED301AB8EEC00A21EE000A01
:10573000BDEEC00A10EE102A48F20003D0F898001F
:10574000CFF6FF73B2F5004FB8BF4FF40043002807
:105750000FF29850C8BF043090ED000A03EB020826
:1057600080EE010A43F27C620DF15809C0F6060290
:105770002B46CDF80080BDEEC00A10EE100A0F18BF
:10578000484650210197FBF7BDFF002348462946B4
:1057900000220093019303F0B1FCA06D4C2115FB96
:1057A000010041463A4603F078FDE0694FF49877EE
:1057B00015FB0700002103F0FFFBE069B4F940107E
:1057C00015FB0700FFF76EF92EE0A06D4FF49878F7
:1057D00015FB0807F8697168C0EBC032384603F062
:1057E0005CFDBA6EB16807F14C00C2EBC23203F047
:1057F00054FDD7F8B420F16807F19800C2EBC2322B
:1058000003F04BFDD7F80021316907F1E400C2EB4A
:10581000C23203F042FD204601F036F9E069002172
:1058200015FB080003F0C8FB307884F86C00B0E189
:1058300096ED020A4FF41A77B8EEC00A15FB07007E
:1058400080ED810AA069B16915FB0700C0F8081254
:105850004FF000090E20C4F8709084F86C00A06925
:10586000317815FB070080F81C12012180F8001226
:10587000A0690DF1580815FB070080F80192404619
:105880004621FCF7E2FBA06915FB0700D0F80402F3
:1058900039F012F841EC100B7068F0A2029040460B
:1058A00046218DED000BFBF72DFF404629460022D7
:1058B000CDF80090CDF8049003F020FC15F0C4F969
:1058C00015F060FCA8B30DF1580840464621FCF7DE
:1058D000BCFB7068B7690090E9A2404646212B46A0
:1058E0000197FBF70FFF404629460022CDF80090B4
:1058F000CDF8049003F002FCD6E9047838461FF096
:105900001BFD814600F0FE000E2840F0BB8016AC67
:1059100020464621FCF799FB43F2B562C0F6060229
:10592000204646214B469FE04FF41A7015FB0010AD
:1059300006E148F6FC50C0F6060090E88E00D0E97B
:105940000464D0F818C0808B0DF1100E8EE88E0024
:10595000ADF82C0004A829460022CDE90864CDF852
:1059600028C0CDF80090CDF8049085E006F10C0237
:105970004FF41A7892ED000A4FF00009FE2215FB51
:105980000800C4F8709084F86C2080F81C12012183
:1059900080F80012A069B8EEC09A15FB080080F8E4
:1059A0000C92A06915FB0800D0F8FC7112F01AF8EF
:1059B00012F095FA002800F0C880D6E90301081A11
:1059C00000EE100AD7E91E01B8EEC00A081A01EE6F
:1059D000100AB8EEC11A80EE018A09F0F0FF0E211C
:1059E0008DF810508DF811108DED168ACDF85C9061
:1059F000016816AA4B6A04A99847A06D4FF04C099C
:105A000015FB0900B0EE480A03F00AFCA06D89EE10
:105A1000081A15FB090090F8401041F0040180F8C5
:105A2000401096ED030A97ED1E2AB8EEC00A80EEEC
:105A3000080AB8EEC22AA06915FB080030EE420A37
:105A4000BDEEC02A80ED842AA06931EE400A15FB24
:105A5000080080ED810A8BE013B243F29E6216AC1F
:105A6000C0F6060220464621FBF74CFE00232046E6
:105A7000009329460022019303F040FB89E000BF18
:105A800000006144812107EB0800C8F2080151FBC6
:105A900000019FED861ACA1302EBD171C1EB0131EF
:105AA000C0EB011000EE100AB8EEC00A20EE010AA9
:105AB000B2EE041A20EE010ABDEEC00AB9F10F0FD2
:105AC00010EE107A00F2C780012000FA09F04CF2C3
:105AD0000F01084208BF4FF00F0915F0B5F8337BEE
